:020000040800F2
:10000000000002206D1F00080914000811140008E8
:100010001914000821140008291400080000000029
:10002000000000000000000000000000E19900084E
:100030003114000800000000319C00083F14000843
:10004000BD1F0008BD1F0008BD1F0008BD1F000820
:10005000BD1F0008BD1F0008BD1F0008BD1F000810
:10006000BD1F0008BD1F0008BD1F0008BD1F000800
:10007000BD1F0008BD1F0008BD1F0008BD1F0008F0
:10008000591400086D140008BD1F0008BD1F0008AA
:10009000BD1F0008BD1F0008BD1F0008BD1F0008D0
:1000A000BD1F000881140008BD1F0008BD1F000807
:1000B00095140008A9140008BD140008BD1F00080D
:1000C000BD1F0008BD1F0008BD1F0008BD1F0008A0
:1000D000BD1F0008BD1F0008D1140008E51400086A
:1000E000BD1F0008BD1F0008BD1F0008BD1F000880
:1000F000BD1F0008BD1F0008BD1F0008BD1F000870
:10010000BD1F0008BD1F0008BD1F0008BD1F00085F
:10011000BD1F0008BD1F0008BD1F0008BD1F00084F
:10012000BD1F0008BD1F0008BD1F0008BD1F00083F
:10013000BD1F0008BD1F0008BD1F0008BD1F00082F
:10014000BD1F0008BD1F0008BD1F0008BD1F00081F
:10015000BD1F0008BD1F0008BD1F0008BD1F00080F
:10016000BD1F0008BD1F0008BD1F0008BD1F0008FF
:10017000BD1F0008BD1F0008BD1F000800000000D3
:08018000BD1F0008BD1F0008AF
:1001900010B5054C237833B9044B13B10448AFF3C1
:1001A00000800123237010BD6000002000000000CB
:1001B000D8AA000808B5034B1BB103490348AFF3A5
:1001C000008008BD0000000064000020D8AA0008DC
:1001D000034613F8012B002AFBD1181A0138704787
:1001E00001F0FF01102A2BDB10F0070F08D010F8E8
:1001F000013B013A8B422DD010F0070F42B3F6D1EC
:10020000F0B441EA012141EA014122F007047FF004
:1002100000070023F0E80256083C85EA010586EA5B
:10022000010685FA47F5A3FA87F586FA47F6A5FA97
:1002300087F68EB9EED1F0BC01F0FF0102F00702A3
:1002400032B110F8013B013A83EA010313B1F8D14E
:100250000020704701387047002D06BF354603382F
:10026000073815F0010F07D1013015F4807F02BF68
:10027000013015F4C03F0130F0BC0138704700BFB9
:1002800053B94AB9002908BF00281CBF4FF0FF31FD
:100290004FF0FF3000F088B9ADF1080C6DE904CEE5
:1002A00000F006F8DDF804E0DDE9022304B0704751
:1002B0002DE9F047089D8E4604468846002B4AD11A
:1002C0008A42174662D9B2FA82F64EB1C6F12003CD
:1002D00001FA06F820FA03F3B74043EA0808B440ED
:1002E0004FEA174E1FFA87FCB8FBFEF1230C0EFBFA
:1002F000118843EA084301FB0CF29A4209D9FB1822
:1003000001F1FF3080F0EA809A4240F2E780023942
:100310003B449A1AA3B2B2FBFEF00EFB102243EA52
:10032000024300FB0CFC9C4509D9FB1800F1FF328D
:1003300080F0D6809C4540F2D3803B44023840EAAE
:100340000140A3EB0C0300211DB1F3400022C5E9DD
:100350000032BDE8F0878B4205D90DB1C5E9000137
:1003600000210846F5E7B3FA83F1002946D1734529
:1003700002D3824200F20581841A6EEB030201204F
:100380009046002DE5D0C5E90048E2E7002A00F0DC
:100390009080B2FA82F6002E40F0A4808A1A030CF4
:1003A0004FEA174E80B2BCB20121B2FBFEFC0EFB3D
:1003B0001C2243EA024304FB0CF29A4207D9FB18C1
:1003C0000CF1FF3802D29A4200F2E080C4469B1A38
:1003D000B3FBFEF20EFB123340EA034302FB04F4CC
:1003E0009C4207D9FB1802F1FF3002D29C4200F276
:1003F000CA8002461B1B42EA0C40A5E7C1F1200659
:100400008B4022FA06F71F430EFA01F420FA06F396
:100410002EFA06FE4FEA1749234300FA01F81FFAA5
:1004200087FCBEFBF9F01C0C09FB10EE44EA0E44FD
:1004300000FB0CFEA64502FA01F209D93C1900F1B5
:10044000FF3A80F09C80A64540F2998002383C44F7
:10045000A4EB0E041FFA83FEB4FBF9F309FB13446B
:100460004EEA044403FB0CFCA44508D93C1903F1F3
:10047000FF3E80F08280A4457FD9023B3C4443EAA2
:100480000040A4EB0C04A0FB02EC64457346E1467B
:1004900062D35FD05DB1B8EB030264EB090404FAE8
:1004A00006F622FA01F31E43CC40C5E900640021A0
:1004B0004FE7B1FBF2FC010C41EA0E4180B240EA89
:1004C00001423B4638463C46B846BE462026B1FB74
:1004D000F7F1A2EB080241EA0C4166E7014618E792
:1004E00010462CE7C6F120022EFA02F3B740B140C5
:1004F00020FA02F24FEA174E0A43B3FBFEF8BCB2F1
:100500000EFB1833110C41EA034108FB04F9B0401B
:1005100089454FEA104380B23ED9791808F1FF3C73
:1005200001D289451FD8A1EB0901B1FBFEF909FBF6
:1005300004F80EFB191192B242EA0142424529D257
:10054000BA1809F1FF31C4D24245C2D2A9F1020161
:100550003A44BEE7F0459DD2BEEB02036CEB070CBC
:100560000138E14696E7A7EB09094944A8F1020CD6
:10057000B1FBFEF909FB04F8DBE773467FE7504661
:1005800066E70846FDE63B44023A33E7ACF1020C6D
:100590003B441CE749469CE7A1EB0901C446B1FB7B
:1005A000FEF909FB04F8C4E7704700BF80B58CB0C2
:1005B00000AF07F1200300221A605A609A60DA60E7
:1005C0003B4620220021184609F008FE2F4B304AF6
:1005D0001A602E4B4FF480325A602C4B00229A60E6
:1005E0002A4B00221A61294B00221A76274B00223F
:1005F00083F82020254B0022DA62244B254A9A6298
:10060000224B0022DA60214B0122DA611F4B0022CB
:1006100083F830201D4B01225A611C4802F076FB02
:100620000346002B01D000F0BDFE0B233B620123EB
:100630007B620023BB6207F120031946134802F0D6
:1006400013FD0346002B01D000F0ACFE0B233B60F2
:1006500001237B6001233B610123BB600023FB611D
:100660000D4BBB6100237B7500233B750023FB60B2
:100670003B461946054802F015FF0346002B01D002
:1006800000F090FE00BF3037BD4680BD7C000020EA
:10069000002001400100000F01000F0080B58AB06A
:1006A00000AF786007F1140300221A605A609A6064
:1006B000DA601A617B681B68174A934227D10023CE
:1006C0003B61164B5B6C154A43F480735364134BC8
:1006D0005B6C03F480733B613B690023FB600F4B51
:1006E0001B6B0E4A43F0040313630C4B1B6B03F0AC
:1006F0000403FB60FB6802237B610323BB610023CF
:10070000FB6107F114031946054803F0EFFC00BF35
:100710002837BD4680BD00BF0020014000380240A0
:100720000008024080B582B000AF00237B60104B10
:100730001B6B0F4A43F4001313630D4B1B6B03F445
:1007400000137B607B6800220521102003F01BF959
:10075000102003F034F900220521112003F013F9D1
:10076000112003F02CF900BF0837BD4680BD00BF43
:100770000038024080B500AF204A0121012006F078
:100780008AFE03461E4A13601E4A0121012006F01C
:1007900082FE03461C4A13601C4A0821052006F00D
:1007A00003FF03461A4A13601A4A0821032006F081
:1007B000FBFE0346184A1360184A0021184806F049
:1007C000BDFD0346174A1360174A0021174806F07B
:1007D000B5FD0346164A1360164A0021164806F076
:1007E000ADFD0346154A1360154A0021154806F071
:1007F000A5FD0346144A136000BF80BDACAC0008E1
:10080000E8000020BCAC0008EC0000207CAC000834
:10081000E000002094AC0008E4000020ECAB0008ED
:100820004D080008D000002010AC00085D0800084A
:10083000D400002034AC00084D0A0008D800002085
:1008400058AC0008AD0D0008DC00002080B582B077
:1008500000AF7860012006F003FEFBE780B588B0AA
:1008600000AF786001F064FC02F0DEF8714B1B7899
:10087000DBB2002B05D0012001F09AFE6D4B002267
:100880001A706D4B1B78DBB2002B05D0022001F0F3
:100890008FFE694B00221A70684B1B78DBB2002B6D
:1008A00005D0032001F084FE644B00221A70644BD3
:1008B0001B78DBB2002B05D0042001F079FE604BE1
:1008C00000221A700A21012001F0B4FE0A21022040
:1008D00001F0B0FE0A21032001F0ACFE0A21042041
:1008E00001F0A8FE012001F035FE0346FB82022044
:1008F00001F030FE0346BB82032001F02BFE0346CD
:100900007B82042001F026FE03463B824D4B1B8870
:10091000FB834C4B5B88BB834A4B9B887B83494B57
:10092000DB883B83B7F91E3041F67862934202DDE3
:1009300041F67863FB83B7F91E30434A934202DAEB
:100940004EF28813FB83B7F91C3041F6786293426C
:1009500002DD41F67863BB83B7F91C303A4A934213
:1009600002DA4EF28813BB83B7F91A3041F6786287
:10097000934202DD41F678637B83B7F91A30324A3D
:10098000934202DA4EF288137B83B7F9183041F6AE
:100990007862934202DD41F678633B83B7F9183001
:1009A000294A934202DA4EF288133B83B7F91620A4
:1009B000B7F91E301946002002F0A6F80346FB8165
:1009C000B7F91420B7F91C301946012002F09CF841
:1009D0000346BB81B7F91220B7F91A301946022035
:1009E00002F092F803467B81B7F91020B7F918306E
:1009F0001946032002F088F803463B81B7F90E3010
:100A00001946002001F0D6FCB7F90C301946012038
:100A100001F0D0FCB7F90A301946022001F0CAFCF7
:100A2000B7F908301946032001F0C4FC0A2006F08B
:100A300017FD1BE7C2010020C3010020C4010020F4
:100A4000C5010020C400002088E1FFFF80B582B00E
:100A500000AF78604FF40051044803F0FCFC4FF401
:100A60007A7006F0FDFC00BFF4E700BF000802400A
:100A700080B485B000AF0346FB714FF4FA73FB817D
:100A8000FB79013B152B00F27E8101A252F823F085
:100A9000E90A00080F0B0008350B00085B0B000883
:100AA000810B0008870D0008870D0008870D0008DE
:100AB000870D0008870D0008870D0008870D0008C6
:100AC000870D0008870D0008870D0008870D0008B6
:100AD0009B0B0008ED0B00083F0C0008910C000870
:100AE000E30C0008350D0008AA4AFB891380FB8936
:100AF0005B429BB21AB2A74B5A80FB895B429BB206
:100B00001AB2A44B9A80A34AFB89D3803CE1FB89AB
:100B10005B429BB21AB29F4B1A809E4AFB8953805C
:100B20009C4AFB899380FB895B429BB21AB2994B2A
:100B3000DA8029E1FB895B429BB21AB2954B1A809D
:100B4000FB895B429BB21AB2924B5A80914AFB8955
:100B50009380904AFB89D38016E18E4AFB891380EB
:100B60008C4AFB895380FB895B429BB21AB2894B4A
:100B70009A80FB895B429BB21AB2864BDA8003E112
:100B8000844B00221A80834B00225A80814B002222
:100B90009A80804B0022DA80F6E07F4BD3ED007A1A
:100BA000B7EE007A77EE877A7B4BC3ED007A7B4B0A
:100BB000D3ED007AB7EE007A77EE877A774BC3ED04
:100BC000007A774BD3ED007AB7EE007A77EE877A2A
:100BD000734BC3ED007A734BD3ED007AB7EE007A16
:100BE00077EE877A6F4BC3ED007ACDE06A4BD3ED99
:100BF000007AB7EE007A77EEC77A674BC3ED007ADA
:100C0000664BD3ED007AB7EE007A77EEC77A634B86
:100C1000C3ED007A624BD3ED007AB7EE007A77EE3F
:100C2000C77A5F4BC3ED007A5E4BD3ED007AB7EE27
:100C3000007A77EEC77A5B4BC3ED007AA4E0564B9F
:100C4000D3ED017A9FED587A77EE877A524BC3ED58
:100C5000017A524BD3ED017A9FED537A77EE877A82
:100C60004E4BC3ED017A4E4BD3ED017A9FED4E7A98
:100C700077EE877A4A4BC3ED017A4A4BD3ED017A7E
:100C80009FED497A77EE877A464BC3ED017A7BE098
:100C9000414BD3ED017A9FED447A77EEC77A3E4B14
:100CA000C3ED017A3D4BD3ED017A9FED3F7A77EEAC
:100CB000C77A3A4BC3ED017A394BD3ED017A9FEDF8
:100CC0003A7A77EEC77A364BC3ED017A354BD3EDDE
:100CD000017A9FED357A77EEC77A324BC3ED017A10
:100CE00052E02D4BD3ED027AB7EE007A77EE877A99
:100CF000294BC3ED027A294BD3ED027AB7EE007A85
:100D000077EE877A254BC3ED027A254BD3ED027A35
:100D1000B7EE007A77EE877A214BC3ED027A214B4A
:100D2000D3ED027AB7EE007A77EE877A1D4BC3EDEA
:100D3000027A29E0184BD3ED027AB7EE007A77EE0B
:100D4000C77A154BC3ED027A144BD3ED027AB7EE96
:100D5000007A77EEC77A114BC3ED027A104BD3EDD0
:100D6000027AB7EE007A77EEC77A0D4BC3ED027ABE
:100D70000C4BD3ED027AB7EE007A77EEC77A094BC7
:100D8000C3ED027A00E000BF00BF1437BD465DF836
:100D9000047B7047C400002044050020800500202B
:100DA000BC050020F8050020CDCCCC3DF0B5B3B09B
:100DB00006AF78600023C7F8A8304FF0FF33142245
:100DC0008749884805F088F94FF0FF331422864997
:100DD000864805F081F901228549824805F09EFA8E
:100DE00001228449814805F099FA834801F0D2FF35
:100DF000824B1B78DBB2002B19D0642364227C4920
:100E0000784805F0F4F903461A467D4B1A607C4B8E
:100E10001B68002B08D07A4B1B689AB24FF0FF3347
:100E20007349704805F058F9744B00221A70754BDD
:100E30001B78DBB2002B5DD0642364226D496B48C4
:100E400005F0D5F903461A466F4B1A606E4B1B68C6
:100E5000002B4CD0002387F8AF3042E06B4B1B785F
:100E6000002B0FD197F8AF30624AD35CFF2B09D12A
:100E700097F8AF305F4AD25C654B1A70634B012222
:100E80001A7029E0614B1B78012B09D197F8AF301C
:100E9000584AD25C5E4B5A705C4B02221A701BE0BF
:100EA0005A4B1B78022B14D197F8AF30514AD35CC0
:100EB000FE2B0ED197F8AF304E4AD25C544B9A704D
:100EC000534B5B781846FFF7D3FD504B00221A7046
:100ED00002E04E4B00221A7097F8AF30013387F8CA
:100EE000AF3097F8AF20484B1B689A42B6D3454BBA
:100EF00000221A70012001F02DFB0346A7F8A6304E
:100F0000022001F027FB0346A7F8A430032001F0DC
:100F100021FB0346A7F8A230042001F01BFB034687
:100F2000A7F8A0303B4BB3F900309C46394BB3F9DE
:100F300002309E46374BB3F904301D46354BB3F9AA
:100F400006301E46B7F9A630B7F9A420B7F9A210AB
:100F5000B7F9A00007F13C040590049103920293B5
:100F600001960095734662462B49204609F014F914
:100F700007F13C031846FFF72BF903469AB207F135
:100F80003C014FF0FF33194805F0A6F81A4801F06C
:100F900001FF6421184801F0CFFF0346002B1AD14E
:100FA000154802F054F8C7F8A80007F10803D7F86D
:100FB000A8201A49184609F0EFF807F10803184667
:100FC000FFF706F903469AB207F108014FF0FF3325
:100FD000064805F081F84FF47A7006F041FA07E709
:100FE0005CAB00083C03002074AB000884030020C5
:100FF000F0000020540100207C000020C0010020EF
:10100000B8010020C1010020BC010020CF00002059
:10101000CC000020C40000208CAB0008C8AB000846
:1010200080B58CB000AF07F11C0300221A605A6033
:101030009A60DA601A610023BB615B4B1B6B5A4AF2
:1010400043F004031363584B1B6B03F00403BB61B1
:10105000BB6900237B61544B1B6B534A43F08003F5
:101060001363514B1B6B03F080037B617B6900238F
:101070003B614D4B1B6B4C4A43F0010313634A4BDE
:101080001B6B03F001033B613B690023FB60464B94
:101090001B6B454A43F010031363434B1B6B03F078
:1010A0001003FB60FB680023BB603F4B1B6B3E4A99
:1010B00043F0020313633C4B1B6B03F00203BB6062
:1010C000BB6800237B60384B1B6B374A43F0080337
:1010D0001363354B1B6B03F008037B607B680023B5
:1010E0003B60314B1B6B304A43F0400313632E4B84
:1010F0001B6B03F040033B603B6800224FF4105130
:101100002A4803F08FF9002248F66001284803F0CE
:1011100089F900224FF48071264803F083F90022F8
:101120000C21254803F07EF94FF41053FB61012395
:101130003B6200237B620023BB6207F11C0319465C
:101140001A4802F0D3FF48F66003FB6101233B62BB
:1011500000237B620023BB6207F11C03194614487D
:1011600002F0C4FF4FF48073FB6101233B62002354
:101170007B620023BB6207F11C0319460D4802F095
:10118000B5FF0C23FB6101233B6200237B6200233C
:10119000BB6207F11C031946074802F0A7FF00BF16
:1011A0003037BD4680BD00BF003802400008024015
:1011B0000018024000000240000C024080B500AF61
:1011C00001F032FD00F01CF8FFF72AFFFFF7AAFA42
:1011D00000F064FD00F08CFD00F0D6F900F02CFA70
:1011E00000F07EFA00F0D0FA00F022FBFFF7DEF903
:1011F00006F05AF8FFF7BEFA06F07AF800BFFDE7EE
:1012000080B594B000AF07F12003302200211846CA
:1012100008F0E4FF07F10C0300221A605A609A609C
:10122000DA601A610023BB60284B1B6C274A43F02D
:1012300080531364254B1B6C03F08053BB60BB6869
:1012400000237B60224B1B68214A43F480431360D8
:101250001F4B1B6803F480437B607B6801233B6268
:101260004FF480337B620223BB634FF48003FB6344
:1012700004233B64A8237B640223BB640423FB6434
:1012800007F12003184603F001F90346002B01D0B3
:1012900000F088F80F23FB6002233B6100237B6191
:1012A0004FF4A053BB614FF48053FB6107F10C0373
:1012B0000521184603F062FB0346002B01D000F025
:1012C00071F800BF5037BD4680BD00BF00380240F6
:1012D0000070004080B582B000AF78607B680E4A35
:1012E000934208D10D4B01221A7001220C490A4881
:1012F00005F014F80BE07B680A4A934207D10A4BC9
:1013000001221A7001220949064805F007F800BFBA
:101310000837BD4680BD00BF3C030020C00100204F
:10132000C801002084030020C1010020CC0100205E
:1013300080B483B000AF78607B68124A934203D1D7
:10134000114B01221A7016E07B68104A934203D1B8
:101350000F4B01221A700EE07B680E4A934203D1B4
:101360000D4B01221A7006E07B680C4A934202D1B1
:101370000B4B01221A7000BF0C37BD465DF8047B91
:10138000704700BFD4010020C20100201C020020D1
:10139000C301002064020020C4010020AC02002030
:1013A000C501002080B400AF72B600BF00BFFDE7EA
:1013B00080B582B000AF00237B60124B5B6C114A9A
:1013C00043F4804353640F4B5B6C03F480437B60B6
:1013D0007B6800233B600B4B1B6C0A4A43F0805335
:1013E0001364084B1B6C03F080533B603B68002286
:1013F0000F216FF0010002F0C6FA00BF0837BD46AA
:1014000080BD00BF0038024080B400AF00BFFDE7E0
:1014100080B400AF00BFFDE780B400AF00BFFDE7C0
:1014200080B400AF00BFFDE780B400AF00BFFDE7B0
:1014300080B400AF00BFBD465DF8047B704780B547
:1014400000AF01F043FC07F027FE0346012B01D05B
:1014500008F022FC00BF80BD80B500AF024802F05A
:1014600009FC00BF80BD00BFCC03002080B500AFE9
:10147000024802F0FFFB00BF80BD00BF2C0400202B
:1014800080B500AF024803F03DFF00BF80BD00BF44
:10149000D401002080B500AF024803F033FF00BF45
:1014A00080BD00BF1C02002080B500AF024803F0E1
:1014B00029FF00BF80BD00BF6402002080B500AFDF
:1014C000024803F01FFF00BF80BD00BFAC02002038
:1014D00080B500AF024804F047FF00BF80BD00BFE9
:1014E0003C03002080B500AF024804F03DFF00BF80
:1014F00080BD00BF8403002080B586B000AF786057
:10150000144A154BD31A7B617B693B61134B1B68F3
:10151000002B02D1114B124A1A60104B1A687B68DB
:1015200013443A699A4207D208F060FE03460C223F
:101530001A604FF0FF3309E0084B1B68FB60074B54
:101540001A687B681344054A1360FB68184618370D
:10155000BD4680BD0000022000040000D001002034
:10156000D050002080B400AF064BD3F88830054A35
:1015700043F47003C2F8883000BFBD465DF8047BB9
:10158000704700BF00ED00E080B58CB000AF07F100
:101590000C0324220021184608F020FE3B1D0022E7
:1015A0001A605A60224B234A1A60214B00225A606B
:1015B0001F4B00229A601E4B4FF6FF72DA601C4BE5
:1015C00000221A611A4B00225A61194B00229A61BB
:1015D0000323FB6000233B6101237B610023BB618C
:1015E0000023FB6100233B6201237B620023BB627B
:1015F0000023FB6207F10C0319460D4803F04EFD72
:101600000346002B01D0FFF7CDFE00237B600023B3
:10161000BB603B1D1946064804F02CFC0346002B1A
:1016200001D0FFF7BFFE00BF3037BD4680BD00BF11
:10163000D40100200000014080B58CB000AF07F15C
:101640000C0324220021184608F0C8FD3B1D00228F
:101650001A605A60214B4FF080421A601F4B0022E3
:101660005A601E4B00229A601C4B4FF6FF72DA60E4
:101670001A4B00221A61194B00229A610323FB6066
:1016800000233B6101237B610023BB610023FB61DD
:1016900000233B6201237B620023BB620023FB62C9
:1016A00007F10C0319460D4803F0F8FC0346002B24
:1016B00001D0FFF777FE00237B600023BB603B1D5A
:1016C0001946064804F0D6FB0346002B01D0FFF76D
:1016D00069FE00BF3037BD4680BD00BF1C02002040
:1016E00080B58CB000AF07F10C032422002118460E
:1016F00008F074FD3B1D00221A605A60204B214AFD
:101700001A601F4B00225A601D4B00229A601C4B2E
:101710004FF6FF72DA601A4B00221A61184B8022D2
:101720009A610323FB6000233B6101237B6100235B
:10173000BB610023FB6100233B6201237B6200232A
:10174000BB620023FB6207F10C0319460C4803F04F
:10175000A5FC0346002B01D0FFF724FE00237B608D
:101760000023BB603B1D1946054804F083FB03467C
:10177000002B01D0FFF716FE00BF3037BD4680BDFD
:10178000640200200004004080B58CB000AF07F177
:101790000C0324220021184608F020FD3B1D0022E6
:1017A0001A605A60204B214A1A601F4B00225A606F
:1017B0001D4B00229A601C4B4FF6FF72DA601A4BE9
:1017C00000221A61184B00229A610323FB60002358
:1017D0003B6101237B610023BB610023FB6100238C
:1017E0003B6201237B620023BB620023FB6207F1A3
:1017F0000C0319460C4803F051FC0346002B01D0A2
:10180000FFF7D0FD00237B600023BB603B1D194622
:10181000054804F02FFB0346002B01D0FFF7C2FD63
:1018200000BF3037BD4680BDAC020020000800403C
:1018300080B596B000AF07F1480300221A605A60E5
:101840009A60DA6007F1400300221A605A6007F1DB
:10185000240300221A605A609A60DA601A615A61A1
:101860009A613B1D20220021184608F0B7FC584B16
:10187000584A1A60564BA7225A60554B00229A606C
:10188000534B40F2E732DA60514B00221A61504B61
:1018900000225A614E4B00229A614D4803F08EFAA5
:1018A0000346002B01D0FFF77DFD4FF48053BB644E
:1018B00007F148031946464803F0D6FE0346002BBD
:1018C00001D0FFF76FFD424803F0C7FA0346002B33
:1018D00001D0FFF767FD00233B6400237B6407F121
:1018E000400319463A4804F0C5FA0346002B01D0DC
:1018F000FFF758FD60237B620023BB620023FB627D
:1019000000233B6300237B630023BB630023FB6353
:1019100007F12403002219462D4803F0E3FD034696
:10192000002B01D0FFF73EFD07F1240304221946E6
:10193000274803F0D7FD0346002B01D0FFF732FD07
:1019400007F1240308221946214803F0CBFD034682
:10195000002B01D0FFF726FD07F124030C221946C6
:101960001B4803F0BFFD0346002B01D0FFF71AFD13
:1019700000237B600023BB600023FB6000233B61EE
:1019800000237B614FF40053BB6100233B623B1D8E
:1019900019460F4804F0EAFA0346002B01D0FFF77E
:1019A00001FD00210A4803F0B1FA0421084803F0C0
:1019B000ADFA0821064803F0A9FA0C21044803F007
:1019C000A5FA034800F030F900BF5837BD4680BD86
:1019D000F40200200004014080B590B000AF7860B0
:1019E00007F12C0300221A605A609A60DA601A61CB
:1019F0007B681B68744A934235D10023BB62734BEA
:101A00005B6C724A43F001035364704B5B6C03F0F0
:101A10000103BB62BB6A00237B626C4B1B6B6B4A8E
:101A200043F010031363694B1B6B03F010037B62DD
:101A30007B6A4FF42063FB6202233B6300237B63DA
:101A40000023BB630123FB6307F12C0319466048A5
:101A500002F04CFB00220521192001F094FF19200F
:101A600001F0ADFFACE07B681B68B3F1804F34D16F
:101A700000233B62554B1B6C544A43F00103136433
:101A8000524B1B6C03F001033B623B6A0023FB617A
:101A90004E4B1B6B4D4A43F0010313634B4B1B6BC7
:101AA00003F00103FB61FB690323FB6202233B6339
:101AB00000237B630023BB630123FB6307F12C033B
:101AC0001946444802F012FB002205211C2001F0B7
:101AD0005AFF1C2001F073FF72E07B681B683E4ACE
:101AE000934234D10023BB61384B1B6C374A43F01F
:101AF00002031364354B1B6C03F00203BB61BB692B
:101B000000237B61314B1B6B304A43F001031363AD
:101B10002E4B1B6B03F001037B617B69C023FB62CF
:101B200002233B6300237B630023BB630223FB632D
:101B300007F12C031946274802F0D8FA00220521A4
:101B40001D2001F020FF1D2001F039FF38E07B68E7
:101B50001B68224A934233D100233B611B4B1B6C11
:101B60001A4A43F004031364184B1B6C03F004037C
:101B70003B613B690023FB60144B1B6B134A43F032
:101B800002031363114B1B6B03F00203FB60FB6842
:101B9000C023FB6202233B6300237B630023BB6300
:101BA0000223FB6307F12C0319460D4802F09EFA4D
:101BB000002205211E2001F0E6FE1E2001F0FFFE9E
:101BC00000BF4037BD4680BD0000014000380240E4
:101BD00000100240000002400004004000080040E5
:101BE0000004024080B485B000AF78607B681B6859
:101BF0000B4A93420DD10023FB600A4B5B6C094AF0
:101C000043F002035364074B5B6C03F00203FB6079
:101C1000FB6800BF1437BD465DF8047B704700BF0A
:101C2000000401400038024080B588B000AF786001
:101C300007F10C0300221A605A609A60DA601A6198
:101C40007B681B68124A93421ED10023BB60114B74
:101C50001B6B104A43F0040313630E4B1B6B03F022
:101C60000403BB60BB684FF47073FB6002233B61ED
:101C700000237B610023BB610323FB6107F10C039D
:101C80001946054802F032FA00BF2037BD4680BD34
:101C900000040140003802400008024080B500AF57
:101CA000114B124A1A60104B4FF4E1325A600E4B3E
:101CB00000229A600C4B0022DA600B4B00221A6162
:101CC000094B0C225A61084B00229A61064B0022F4
:101CD000DA61054804F0B0F90346002B01D0FFF7A4
:101CE00061FB00BF80BD00BF3C03002000440040FA
:101CF00080B500AF114B124A1A60104B4FF4E1321D
:101D00005A600E4B00229A600C4B0022DA600B4B9B
:101D100000221A61094B0C225A61084B00229A6179
:101D2000064B0022DA61054804F086F90346002BD1
:101D300001D0FFF737FB00BF80BD00BF8403002048
:101D40000048004080B58CB000AF786007F11C03FC
:101D500000221A605A609A60DA601A617B681B6818
:101D6000794A934240F092800023BB61774B1B6C11
:101D7000764A43F400331364744B1B6C03F4003352
:101D8000BB61BB6900237B61704B1B6B6F4A43F0E7
:101D9000080313636D4B1B6B03F008037B617B69C6
:101DA0006023FB6102233B6200237B620323BB624F
:101DB0000723FB6207F11C031946654802F096F9F8
:101DC000644B654A1A60634B4FF000625A60614B86
:101DD00000229A605F4B0022DA605E4B4FF4806213
:101DE0001A615C4B00225A615A4B00229A61594B8E
:101DF0004FF48072DA61574B00221A62554B002271
:101E00005A62544801F0F6FD0346002B01D0FFF75B
:101E1000C9FA7B684F4ADA634E4A7B6893634F4B3B
:101E20004F4A1A604D4B4FF000625A604B4B4022B4
:101E30009A604A4B0022DA60484B4FF480621A6184
:101E4000464B00225A61454B00229A61434B0022C7
:101E5000DA61424B00221A62404B00225A623F482C
:101E600001F0C8FD0346002B01D0FFF79BFA7B6809
:101E70003A4A9A63394A7B689363002205212620F7
:101E800001F081FD262001F09AFD58E07B681B6877
:101E9000344A934253D100233B612C4B1B6C2B4A99
:101EA00043F480231364294B1B6C03F480233B61B0
:101EB0003B690023FB60254B1B6B244A43F0020364
:101EC0001363224B1B6B03F00203FB60FB680023D0
:101ED000BB601E4B1B6B1D4A43F0080313631B4B77
:101EE0001B6B03F00803BB60BB684FF40063FB612E
:101EF00002233B6200237B620323BB620723FB6256
:101F000007F11C031946184802F0F0F84FF48073EB
:101F1000FB6102233B6200237B620323BB62072336
:101F2000FB6207F11C031946094802F0DFF80022A2
:101F30000521272001F027FD272001F040FD00BFEB
:101F40003037BD4680BD00BF00440040003802402D
:101F5000000C0240CC030020886002402C040020CA
:101F6000A06002400048004000040240DFF834D086
:101F7000FFF7F8FA0C480D490D4A002302E0D45847
:101F8000C4500433C4188C42F9D30A4A0A4C0023C3
:101F900001E013600432A242FBD308F02DF9FFF7F1
:101FA0000DF97047000002200000002060000020B2
:101FB00030AD000860000020D0500020FEE7000097
:101FC00080B483B000AF03460A46FB711346BB8062
:101FD000BB88B3F57A7F02D340F2E733BB80FB794D
:101FE000032B00F29B8001A252F823F0FD1F000892
:101FF000452000088D200008D52000084B4B5B6968
:10200000002B05D1494B1B691B68BA885A6386E0CF
:10201000464B5B69042B05D1444B1B691A68BB888E
:1020200093637CE0414B5B69082B05D13F4B1B69F7
:102030001A68BB88D36372E03C4B1B691A68BB8883
:1020400013646CE0394B1B6B002B05D1374BDB6AFB
:102050001B68BA885A6362E0344B1B6B042B05D1B2
:10206000324BDB6A1A68BB88936358E02F4B1B6BBB
:10207000082B05D12D4BDB6A1A68BB88D3634EE071
:102080002A4BDB6A1A68BB88136448E0274BDB6C79
:10209000002B05D1254B9B6C1B68BA885A633EE028
:1020A000224BDB6C042B05D1204B9B6C1A68BB8840
:1020B000936334E01D4BDB6C082B05D11B4B9B6CF1
:1020C0001A68BB88D3632AE0184B9B6C1A68BB88DC
:1020D000136424E0154B9B6E002B05D1134B5B6EF4
:1020E0001B68BA885A631AE0104B9B6E042B05D10B
:1020F0000E4B5B6E1A68BB88936310E00B4B9B6EB4
:10210000082B05D1094B5B6E1A68BB88D36306E0C8
:10211000064B5B6E1A68BB88136400E000BF00BF0B
:102120000C37BD465DF8047B704700BF8C0400206F
:1021300080B500AF5C4B5D4A1A605B4B4FF40062A8
:102140009A80594B594A9A60574B4FF400429A81F2
:10215000554B574A1A61544B00225A61524B002288
:102160001A83514B00229A764F4B524ADA614E4BFA
:1021700004221A844C4B4F4A5A624B4B08221A8550
:10218000494B4B4ADA62484B04221A63464B002201
:102190009A86454B002283F83620434B464A9A6381
:1021A000414B4FF480629A873F4B444A1A643E4B3E
:1021B0004FF48072A3F844203B4B3D4A9A643A4B5B
:1021C0000822DA64384B0022A3F85020364B002254
:1021D00083F85220344B354A5A65334B2022A3F8FA
:1021E0005820314B314ADA652F4B4022A3F860204A
:1021F0002D4B2F4A5A662C4B0C229A662A4B0022F2
:10220000A3F86C20284B002283F86E20264B2C4A22
:102210001A67254B00225A67234B0022A3F8782027
:102220003C21274802F0E0FF1F4B264ADA671E4B8D
:102230000022C3F880201C4B0022A3F884203C21FC
:10224000204802F0D1FF184B1F4AC3F88820164BD4
:102250000022C3F88C20144B0022A3F890203C21CC
:10226000194802F0C1FF104B184AC3F894200E4BD6
:102270000022C3F898200C4B0022A3F89C203C219C
:10228000124802F0B1FF084B0022A3F8A020064B31
:102290000022A3F8A220044B0022A3F8A42000F0FF
:1022A00043F900BF80BD00BF8C040020001802402D
:1022B000F4020020000C024000080240000002402E
:1022C000D40100201C02002064020020AC02002087
:1022D00080B584B000AF03460A46FB711346BB715C
:1022E0000023FB60FB79032B56D801A252F823F0A0
:1022F00001230008072300080D230008132300080A
:10230000284BFB6008E0284BFB6005E0274BFB6097
:1023100002E0274BFB6000BFFB68BA799A76BB7975
:10232000022B28D0022B39DC002B02D0012B11D03C
:1023300034E0FB681868FB689B880022194602F0AD
:1023400071F8FB689868FB689B890022194602F0C7
:1023500069F824E0FB681868FB689B88012219462D
:1023600002F060F8FB689868FB689B8900221946B8
:1023700002F058F813E0FB681868FB689B8800229D
:10238000194602F04FF8FB689868FB689B890122A8
:10239000194602F047F802E000BF00E000BF103726
:1023A000BD4680BD8C040020A8040020C404002089
:1023B000E004002080B584B000AF03460A46FB71FC
:1023C0001346BB800023FB60FB79032B5BD801A283
:1023D00052F823F0E5230008EB230008F12300085E
:1023E000F72300082A4BFB6008E02A4BFB6005E05E
:1023F000294BFB6002E0294BFB6000BFB7F90430BA
:10240000184600F073F80346BB80FB68BA881A834D
:10241000B7F90430002B12DDFB7901211846FFF7D4
:1024200057FFB7F9043040F2E73202FB03F31C4ACE
:1024300082FB03129211DB17D31A7B811CE0B7F9E0
:102440000430002B11DAFB7902211846FFF740FF18
:10245000B7F90430134A02FB03F3114A82FB03125B
:102460009211DB17D31A7B8106E0FB790021184615
:10247000FFF72EFF00237B817A89FB7911461846EE
:10248000FFF79EFD00E000BF1037BD4680BD00BFD6
:102490008C040020A8040020C4040020E0040020D4
:1024A000D34D621019FCFFFF80B582B000AF034628
:1024B000FB71FB79FF2B10D100210020FFF77AFF81
:1024C00000210120FFF776FF00210220FFF772FFB5
:1024D00000210320FFF76EFF04E0FB79002118467E
:1024E000FFF768FF00BF0837BD4680BD80B483B0EA
:1024F00000AF0346FB80B7F90630B3F57A7F02DD03
:102500004FF47A7308E0B7F9063013F57A7F01DAF1
:10251000044B01E0B7F9063018460C37BD465DF8AC
:10252000047B704718FCFFFF80B500AF084B00220A
:10253000A3F8A020064B0022A3F8A220044B0022FF
:10254000A3F8A420FF20FFF7AFFF00BF80BD00BFAE
:102550008C04002080B483B000AF0346FB71FB798C
:10256000013B032B1AD801A252F823F07D25000865
:10257000852500088D250008952500080B4BB3F92B
:1025800078300CE0094BB3F9843008E0074BB3F91D
:10259000903004E0054BB3F99C3000E0002318466E
:1025A0000C37BD465DF8047B704700BF8C040020EB
:1025B00080B483B000AF0346FB71FB79013B032B72
:1025C0002FD801A252F823F0D9250008E9250008E8
:1025D000FB2500080F260008154B1B6F1B685B6A64
:1025E0001A46134B5A671CE0114BDB6F1B685B6A82
:1025F0001A460F4BC3F8802013E00D4BD3F88830F8
:102600001B685B6A1A460A4BC3F88C2009E0084B2A
:10261000D3F894301B685B6A1A46054BC3F89820C0
:1026200000BF00BF0C37BD465DF8047B704700BF9C
:102630008C04002080B487B000AF03460A46FB71CB
:102640001346BB80FB79013B032B00F2B58001A24E
:1026500052F823F065260008B92600080D27000867
:1026600063270008574B1B6F1B685B6A3B61564B27
:102670001B683A69D31AFB60FB684FF47A7203FB5C
:1026800002F2BB8892FBF3F37B617B6947F2305225
:10269000934202DD47F230537B617B694B4A9342A0
:1026A00001DA4A4B7B617B691AB2464BA3F878206A
:1026B000454A3B6913607FE0424BDB6F1B685B6AF6
:1026C0003B61414B5B683A69D31AFB60FB684FF48E
:1026D0007A7203FB02F2BB8892FBF3F37B617B69A6
:1026E00047F23052934202DD47F230537B617B69FF
:1026F000364A934201DA354B7B617B691AB2314B22
:10270000A3F88420304A3B69536055E02D4BD3F841
:1027100088301B685B6A3B612B4B9B683A69D31A14
:10272000FB60FB684FF47A7203FB02F2BB8892FBFA
:10273000F3F37B617B6947F23052934202DD47F24B
:1027400030537B617B69214A934201DA1F4B7B61E5
:102750007B691AB21B4BA3F890201B4A3B6993601C
:102760002AE0184BD3F894301B685B6A3B61164B28
:10277000DB683A69D31AFB60FB684FF47A7203FB9B
:1027800002F2BB8892FBF3F37B617B6947F2305224
:10279000934202DD47F230537B617B690B4A9342DF
:1027A00001DA0A4B7B617B691AB2064BA3F89C20C5
:1027B000054A3B69D36000BF00BF1C37BD465DF8CA
:1027C000047B70478C04002034050020D08AFFFF72
:1027D00080B584B000AFF86087ED020AC7ED010A4A
:1027E00087ED001AFB68002B1ED03C220021F86800
:1027F00007F0F4FCFB68BA681A60FB687A685A60F4
:10280000FB683A689A60FB68094A9A62FB68094A61
:10281000DA62FB68084A1A63FB68084A5A63FB6875
:10282000012283F8382000E000BF1037BD4680BD8C
:1028300000007A4400007AC400009643000096C36A
:1028400080B483B000AF786087ED000A7B68002B0E
:1028500003D07B683A68DA6000E000BF0C37BD4601
:102860005DF8047B704780B485B000AFF86087EDF9
:10287000020AC7ED010AFB68002B06D0FB68BA68A4
:102880009A62FB687A68DA6200E000BF1437BD46DE
:102890005DF8047B704780B485B000AFF86087EDC9
:1028A000020AC7ED010AFB68002B06D0FB68BA6874
:1028B0001A63FB687A685A6300E000BF1437BD46AC
:1028C0005DF8047B704780B487B000AF786087ED17
:1028D000000A7B68002B02D14FF000039BE07B686D
:1028E0003A681A617B6893ED037A7B68D3ED047ACA
:1028F00077EE677A7B68C3ED057A7B6893F83830AA
:10290000002B07D07B685A697B689A617B6800223C
:1029100083F838207B6893ED087A7B68D3ED057ADD
:1029200077EE277A7B68C3ED087A7B6893ED087AA7
:102930007B68D3ED0C7AB4EEE77AF1EE10FA02DDA3
:102940007B681B6B0FE07B6893ED087A7B68D3EDA7
:102950000D7AB4EEE77AF1EE10FA02D57B685B6B84
:1029600001E07B681B6A7A6813627B6893ED007AEA
:102970007B68D3ED057A67EE277AC7ED057A7B6829
:1029800093ED017A7B68D3ED087A67EE277AC7ED7D
:10299000047A7B6893ED027A7B68D3ED056A7B68E5
:1029A000D3ED067A76EEE77A67EE277AC7ED037AFB
:1029B00097ED057AD7ED047A37EE277AD7ED037ACB
:1029C00077EE277A7B68C3ED097A7B6893ED097A05
:1029D0007B68D3ED0A7AB4EEE77AF1EE10FA02DD05
:1029E0007B689B6A0FE07B6893ED097A7B68D3ED87
:1029F0000B7AB4EEE77AF1EE10FA02D57B68DB6A67
:102A000001E07B685B6A7A6853627B685A697B681D
:102A10009A617B685B6A07EE903AB0EE670A1C37F2
:102A2000BD465DF8047B704780B500AFB7EE001A75
:102A3000F6EE000AB1EE040A2B48FFF7C9FEDFEDFF
:102A40002B0A9FED2B0A2848FFF70DFFDFED290A1F
:102A50009FED290A2448FFF71EFFB7EE001AF6EE95
:102A6000000AB1EE040A2548FFF7B2FEDFED1F0AA7
:102A70009FED1F0A2148FFF7F6FEDFED1E0A9FEDCE
:102A80001E0A1E48FFF707FFB7EE001AF6EE000A0F
:102A9000B1EE040A1A48FFF79BFEDFED140A9FED22
:102AA000140A1748FFF7DFFEDFED120A9FED120A46
:102AB0001348FFF7F0FEB7EE001AF6EE000AB1EE8B
:102AC000040A1048FFF784FEDFED080A9FED080AAC
:102AD0000C48FFF7C8FEDFED070A9FED070A09481B
:102AE000FFF7D9FE00BF80BD4405002000007AC476
:102AF00000007A44000096C3000096438005002041
:102B0000BC050020F805002080B588B000AF034662
:102B1000FB710B46BB8013467B800023BB61FB79B6
:102B2000032B17D801A252F823F000BF3D2B000859
:102B3000432B0008492B00084F2B0008304BBB618A
:102B40000AE0304BBB6107E02F4BBB6104E02F4B29
:102B5000BB6101E000234FE0B7F9043007EE903A83
:102B6000B8EEE77ADFED2A6AC7EE267A9FED297A7A
:102B700067EE877AC7ED057A9FED270AB869FFF7F8
:102B80005FFEB7F90420B7F90230D31A07EE903A86
:102B9000F8EEE77AC7ED047AD7ED047AF1EE677ABA
:102BA000B0EE670AB869FFF78EFE87ED030A97ED6E
:102BB000057AD7ED037A77EE277AC7ED077AD7ED56
:102BC000077A9FED147AF4EEC77AF1EE10FA01DD80
:102BD000124BFB61D7ED077A9FED117AF4EEC77ABD
:102BE000F1EE10FA01D50F4BFB61D7ED077AFDEE40
:102BF000E77A17EE903A1BB218462037BD4680BDE3
:102C00004405002080050020BC050020F8050020B8
:102C100000C0F34500007A440000000000007A4440
:102C200000007AC400007AC480B500AF0E4B1B6868
:102C30000D4A43F4007313600B4B1B680A4A43F4BC
:102C400080631360084B1B68074A43F4807313606A
:102C5000032000F08DFE0F2000F008F8FEF7A8FB1F
:102C60000023184680BD00BF003C024080B582B002
:102C700000AF7860124B1A68124B1B7819464FF45C
:102C80007A73B3FBF1F3B2FBF3F3184600F0A5FE41
:102C90000346002B01D001230EE07B680F2B0AD8DE
:102CA000002279684FF0FF3000F06DFE064A7B6825
:102CB0001360002300E0012318460837BD4680BD9D
:102CC00000000020080000200400002080B400AFB5
:102CD000064B1B781A46064B1B681344044A1360C4
:102CE00000BFBD465DF8047B704700BF08000020B0
:102CF0003406002080B400AF034B1B681846BD4665
:102D00005DF8047B704700BF3406002080B584B0B6
:102D100000AF78600023FB737B68002B01D1012397
:102D200033E07B681B6C002B09D17868FDF7B6FC9B
:102D30007B6800225A647B68002283F83C207B6811
:102D40001B6C03F01003002B18D17B681B6C23F461
:102D5000885323F0020343F002027B681A64786808
:102D600000F0A4FA7B6800225A647B681B6C23F095
:102D7000030343F001027B681A6401E00123FB7343
:102D80007B68002283F83C20FB7B18461037BD4649
:102D900080BD000080B485B000AF78600023BB60C8
:102DA0007B6893F83C30012B01D10223B2E07B68B1
:102DB000012283F83C207B681B689B6803F00103B9
:102DC000012B18D07B681B689A687B681B6842F0EF
:102DD00001029A60524B1B68524AA2FB03239A0CD1
:102DE00013465B001344BB6002E0BB68013BBB6061
:102DF000BB68002BF9D17B681B689B6803F001035B
:102E0000012B7AD17B681B6C23F4E06323F0010370
:102E100043F480727B681A647B681B685B6803F408
:102E20008063002B07D07B681B6C23F4405343F472
:102E300080527B681A647B681B6C03F48053B3F583
:102E4000805F06D17B685B6C23F006027B685A6466
:102E500002E07B6800225A647B68002283F83C20F1
:102E6000314BFB607B681B686FF022021A60FB68C5
:102E70005B6803F01F03002B2AD17B681B682B4A79
:102E8000934215D07B681B68294A934205D1264B93
:102E90005B6803F01F03002B0AD07B681B68254A80
:102EA000934236D1204B5B6803F01003002B30D1E6
:102EB0007B681B689B6803F04053002B29D17B681B
:102EC0001B689A687B681B6842F080429A6020E029
:102ED0007B681B68154A93421BD17B681B689B6803
:102EE00003F04053002B14D17B681B689A687B6801
:102EF0001B6842F080429A600BE07B681B6C43F0D9
:102F000010027B681A647B685B6C43F001027B688B
:102F10005A64002318461437BD465DF8047B704799
:102F20000000002083DE1B430023014000200140FD
:102F3000002101400022014080B584B000AF7860DC
:102F400039600023FB607B681B689B6803F4806327
:102F5000B3F5806F13D17B681B689B6803F48073A3
:102F6000B3F5807F0BD17B681B6C43F020027B683C
:102F70001A647B68002283F83C20012363E0FFF79A
:102F8000B9FEF86021E03B68B3F1FF3F1DD03B681C
:102F9000002B07D0FFF7AEFE0246FB68D31A3A6853
:102FA0009A4212D27B681B681B6803F00203022B53
:102FB0000BD07B681B6C43F004027B681A647B684F
:102FC000002283F83C2003233DE07B681B681B68DC
:102FD00003F00203022BD6D17B681B686FF012024C
:102FE0001A607B681B6C43F400727B681A647B6810
:102FF0001B689B6803F04053002B23D17B681B7E2A
:10300000002B1FD17B681B68DB6A03F47003002B65
:1030100006D07B681B689B6803F48063002B11D18A
:103020007B681B6C23F480727B681A647B681B6C62
:1030300003F48053002B05D17B681B6C43F0010225
:103040007B681A64002318461037BD4680BD80B4E3
:1030500083B000AF78607B681B68DB6C18460C3768
:10306000BD465DF8047B704780B485B000AF7860E2
:1030700039600023BB607B6893F83C30012B01D1A1
:10308000022305E17B68012283F83C203B681B6832
:10309000092B25D97B681B68D9683B681B689BB2E4
:1030A0001A4613465B0013441E3B072202FA03F341
:1030B000DA437B681B680A40DA607B681B68D96862
:1030C0003B689A683B681B689BB2184603465B00E6
:1030D00003441E3B9A407B681B680A43DA6022E087
:1030E0007B681B6819693B681B689BB21A461346CC
:1030F0005B001344072202FA03F3DA437B681B6880
:103100000A401A617B681B6819693B689A683B68CA
:103110001B689BB2184603465B0003449A407B68D9
:103120001B680A431A613B685B68062B24D87B68DE
:103130001B68596B3B685A6813469B001344053B58
:103140001F2202FA03F3DA437B681B680A405A63C2
:103150007B681B68596B3B681B689BB218463B68D1
:103160005A6813469B001344053B00FA03F27B6840
:103170001B680A435A634CE03B685B680C2B24D8FD
:103180007B681B68196B3B685A6813469B001344A5
:10319000233B1F2202FA03F3DA437B681B680A40D1
:1031A0001A637B681B68196B3B681B689BB21846E7
:1031B0003B685A6813469B001344233B00FA03F212
:1031C0007B681B680A431A6323E07B681B68D96A23
:1031D0003B685A6813469B001344413B1F2202FA86
:1031E00003F3DA437B681B680A40DA627B681B687A
:1031F000D96A3B681B689BB218463B685A681346FD
:103200009B001344413B00FA03F27B681B680A43AE
:10321000DA62224BFB607B681B68214A934209D12A
:103220003B681B68122B05D1FB685B6843F4800286
:10323000FB685A607B681B68194A934223D13B683C
:103240001B68102B03D03B681B68112B1BD1FB683C
:103250005B6843F40002FB685A603B681B68102BF4
:1032600011D1104B1B68104AA2FB03239A0C134682
:103270009B0013445B00BB6002E0BB68013BBB608A
:10328000BB68002BF9D17B68002283F83C20002327
:1032900018461437BD465DF8047B70470023014093
:1032A000002001400000002083DE1B4380B485B075
:1032B00000AF7860794BFB60FB685B6823F44032B9
:1032C000FB685A60FB685A687B685B681A43FB6856
:1032D0005A607B681B685A687B681B6822F480729E
:1032E0005A607B681B6859687B681B691A027B6897
:1032F0001B680A435A607B681B685A687B681B68B6
:1033000022F040725A607B681B6859687B689A6833
:103310007B681B680A435A607B681B689A687B68F5
:103320001B6822F400629A607B681B6899687B685E
:10333000DA687B681B680A439A607B689B6A584A14
:10334000934222D07B681B689A687B681B6822F0D6
:1033500070629A607B681B6899687B689A6A7B6870
:103360001B680A439A607B681B689A687B681B68C5
:1033700022F040529A607B681B6899687B68DA6A21
:103380007B681B680A439A600FE07B681B689A6839
:103390007B681B6822F070629A607B681B689A6881
:1033A0007B681B6822F040529A607B681B689A68B1
:1033B0007B681B6822F002029A607B681B68996830
:1033C0007B681B7E5A007B681B680A439A607B6897
:1033D00093F82030002B1BD07B681B685A687B68F1
:1033E0001B6842F400625A607B681B685A687B68FD
:1033F0001B6822F460425A607B681B6859687B68CE
:103400005B6A013B5A037B681B680A435A6007E00A
:103410007B681B685A687B681B6822F400625A60EC
:103420007B681B68DA6A7B681B6822F47002DA62C8
:103430007B681B68D96A7B68DB69013B1A057B687E
:103440001B680A43DA627B681B689A687B681B68A2
:1034500022F400729A607B681B6899687B6893F815
:1034600030305A027B681B680A439A607B681B688D
:103470009A687B681B6822F480629A607B681B688C
:1034800099687B685B699A027B681B680A439A604B
:1034900000BF1437BD465DF8047B70470023014030
:1034A0000100000F80B485B000AF786039607B68A0
:1034B00093F83C30012B01D102237DE17B6801228E
:1034C00083F83C203B681B68092B25D97B681B6867
:1034D000D9683B681B689BB21A4613465B001344CD
:1034E0001E3B072202FA03F3DA437B681B680A409B
:1034F000DA607B681B68D9683B689A683B681B6820
:103500009BB2184603465B0003441E3B9A407B680F
:103510001B680A43DA6022E07B681B6819693B6814
:103520001B689BB21A4613465B001344072202FA3B
:1035300003F3DA437B681B680A401A617B681B68E7
:1035400019693B689A683B681B689BB2184603463A
:103550005B0003449A407B681B680A431A617B68DE
:103560001B689A6B7B681B6822F440129A637B6825
:103570001B68996B3B681B69013B1A057B681B68DC
:103580000A439A637B681B68996B3B685B68DAB295
:103590003B681B69DBB2D31ADBB20333DBB21A46DA
:1035A00013469B0013441F2202FA03F3DA437B689D
:1035B0001B680A409A637B681B68996B3B681B68B1
:1035C0009BB218463B685B68DAB23B681B69DBB2AA
:1035D000D31ADBB20333DBB21A4613469B00134403
:1035E00000FA03F27B681B680A439A633B689B6995
:1035F000744A934222D07B681B689A687B681B6878
:1036000022F470229A607B681B6899683B689A690B
:103610007B681B680A439A607B681B689A687B68B2
:103620001B6822F440129A607B681B6899683B68AB
:10363000DA697B681B680A439A600FE07B681B6845
:103640009A687B681B6822F470229A607B681B680A
:103650009A687B681B6822F440129A603B685B7D25
:10366000002B08D07B681B685A687B681B6842F493
:1036700080625A6007E07B681B685A687B681B6839
:1036800022F480625A603B681B7D002B08D07B6867
:103690001B685A687B681B6842F480525A6007E0D6
:1036A0007B681B685A687B681B6822F480525A60EA
:1036B0003B685B68032B2ED0032B40D8012B02D034
:1036C000022B14D03BE07B681B685B697A68126848
:1036D00023F47F6323F00F0353617B681B685969F0
:1036E0003B68DA687B681B680A435A613BE07B6889
:1036F0001B689B697A68126823F47F6323F00F03C9
:1037000093617B681B6899693B68DA687B681B6812
:103710000A439A6127E07B681B68DB697A68126854
:1037200023F47F6323F00F03D3617B681B68D9699F
:103730003B68DA687B681B680A43DA6113E07B68E0
:103740001B681B6A7A68126823F47F6323F00F03F7
:1037500013627B681B68196A3B68DA687B681B68C0
:103760000A431A6200BF184BFB607B681B68174A4C
:10377000934209D13B681B68122B05D1FB685B683B
:1037800043F48002FB685A607B681B680F4A9342CF
:103790000DD13B681B68102B03D03B681B68112BB5
:1037A00005D1FB685B6843F40002FB685A607B68E4
:1037B000002283F83C20002318461437BD465DF8EC
:1037C000047B704701000F000023014000200140EE
:1037D00080B485B000AF78607B6803F00703FB60BE
:1037E0000C4BDB68BB60BA684FF6FF031340BB604D
:1037F000FB681A02BB68134343F0BF6343F4003312
:10380000BB60044ABB68D36000BF1437BD465DF897
:10381000047B704700ED00E080B400AF044BDB6830
:103820001B0A03F007031846BD465DF8047B70478A
:1038300000ED00E080B483B000AF0346FB7197F960
:103840000730002B0BDBFB7903F01F02074997F9C8
:1038500007305B09012000FA02F241F8232000BF83
:103860000C37BD465DF8047B704700BF00E100E007
:1038700080B483B000AF03463960FB7197F907301D
:10388000002B0ADB3B68DAB20C4997F907301201CA
:10389000D2B20B4483F800230AE03B68DAB208494D
:1038A000FB7903F00F03043B1201D2B20B441A76EA
:1038B00000BF0C37BD465DF8047B704700E100E0B7
:1038C00000ED00E080B489B000AFF860B9607A60C4
:1038D000FB6803F00703FB61FB69C3F10703042BDB
:1038E00028BF0423BB61FB690433062B02D9FB69A3
:1038F000033B00E000237B614FF0FF32BB6902FA1B
:1039000003F3DA43BB681A407B699A404FF0FF31FA
:103910007B6901FA03F3D9437B680B4013431846D4
:103920002437BD465DF8047B7047000080B582B047
:1039300000AF78607B68013BB3F1807F01D3012346
:103940000FE00A4A7B68013B53600F214FF0FF30C4
:10395000FFF78EFF054B00229A60044B07221A6086
:10396000002318460837BD4680BD00BF10E000E0C8
:1039700080B582B000AF78607868FFF729FF00BF9C
:103980000837BD4680BD80B586B000AF0346B9603C
:103990007A60FB7300237B61FFF73EFF78617A68F2
:1039A000B9687869FFF78EFF024697F90F30114624
:1039B0001846FFF75DFF00BF1837BD4680BD80B5D4
:1039C00082B000AF0346FB7197F907301846FFF746
:1039D00031FF00BF0837BD4680BD80B582B000AF63
:1039E00078607868FFF7A2FF034618460837BD469F
:1039F00080BD000080B586B000AF786000237B6199
:103A0000FFF778F938617B68002B01D1012399E039
:103A10007B68022283F835207B68002283F83420FB
:103A20007B681B681A687B681B6822F001021A60B9
:103A30000FE0FFF75FF902463B69D31A052B08D95F
:103A40007B6820225A657B68032283F83520032394
:103A500078E07B681B681B6803F00103002BE8D14A
:103A60007B681B681B687B617A69384B13407B61FC
:103A70007B685A687B689B681A437B68DB681A43DB
:103A80007B681B691A437B685B691A437B689B6987
:103A90001A437B68DB691A437B681B6A13437A69A4
:103AA00013437B617B685B6A042B07D17B68DA6A0E
:103AB0007B681B6B13437A6913437B617B681B68CC
:103AC0007A691A607B681B685B697B617B6923F09C
:103AD00007037B617B685B6A7A6913437B617B6860
:103AE0005B6A042B17D17B689B6A7A6913437B61FD
:103AF0007B68DB6A002B0ED0786800F07BFA034607
:103B0000002B08D07B6840225A657B68012283F82D
:103B10003520012316E07B681B687A695A61786852
:103B200000F032FA0346FB607B68DB6D3F229A406F
:103B3000FB689A607B6800225A657B68012283F8E3
:103B40003520002318461837BD4680BD3F8010F051
:103B500080B584B000AF78607B689B6DFB60FFF739
:103B6000C9F8B8607B6893F83530DBB2022B08D017
:103B70007B6880225A657B68002283F83420012309
:103B800052E07B681B681A687B681B6822F016028B
:103B90001A607B681B685A697B681B6822F0800288
:103BA0005A617B681B6C002B03D17B689B6C002BDC
:103BB00007D07B681B681A687B681B6822F00802C4
:103BC0001A607B681B681A687B681B6822F0010218
:103BD0001A6013E0FFF78EF80246BB68D31A052B74
:103BE0000CD97B6820225A657B68032283F8352034
:103BF0007B68002283F83420032315E07B681B6870
:103C00001B6803F00103002BE4D17B68DB6D3F22CE
:103C10009A40FB689A607B68012283F835207B68B4
:103C2000002283F83420002318461037BD4680BD9B
:103C300080B483B000AF78607B6893F83530DBB236
:103C4000022B04D07B6880225A6501230CE07B683C
:103C5000052283F835207B681B681A687B681B681F
:103C600022F001021A60002318460C37BD465DF8A9
:103C7000047B704780B586B000AF78600023BB60DE
:103C80008E4B1B688E4AA2FB03239B0A7B617B68D9
:103C90009B6D3B613B691B68FB607B68DB6D0822A9
:103CA0009A40FB681340002B1AD07B681B681B6886
:103CB00003F00403002B13D07B681B681A687B6831
:103CC0001B6822F004021A607B68DB6D08229A40B0
:103CD0003B699A607B685B6D43F001027B685A65C3
:103CE0007B68DB6D01229A40FB681340002B12D0E9
:103CF0007B681B685B6903F08003002B0BD07B683B
:103D0000DB6D01229A403B699A607B685B6D43F0F2
:103D100002027B685A657B68DB6D04229A40FB686F
:103D20001340002B12D07B681B681B6803F0020352
:103D3000002B0BD07B68DB6D04229A403B699A60B4
:103D40007B685B6D43F004027B685A657B68DB6DC2
:103D500010229A40FB681340002B43D07B681B68FD
:103D60001B6803F00803002B3CD07B68DB6D10223E
:103D70009A403B699A607B681B681B6803F4802348
:103D8000002B18D07B681B681B6803F40023002BF2
:103D900008D17B681B6C002B24D07B681B6C786877
:103DA00098471FE07B689B6C002B1BD07B689B6C4B
:103DB0007868984716E07B681B681B6803F480737B
:103DC000002B07D17B681B681A687B681B6822F090
:103DD00008021A607B681B6C002B03D07B681B6C8D
:103DE000786898477B68DB6D20229A40FB68134017
:103DF000002B00F08F807B681B681B6803F01003AA
:103E0000002B00F087807B68DB6D20229A403B69A5
:103E10009A607B6893F83530DBB2052B36D17B682E
:103E20001B681A687B681B6822F016021A607B68A0
:103E30001B685A697B681B6822F080025A617B68A4
:103E40001B6C002B03D17B689B6C002B07D07B681D
:103E50001B681A687B681B6822F008021A607B687E
:103E6000DB6D3F229A403B699A607B68012283F8B0
:103E700035207B68002283F834207B681B6D002B83
:103E80007ED07B681B6D7868984779E07B681B68FB
:103E90001B6803F48023002B1DD07B681B681B6804
:103EA00003F40023002B0DD17B685B6C002B31D019
:103EB0007B685B6C786898472CE000BF00000020AE
:103EC000B5814E1B7B68DB6B002B23D07B68DB6BE3
:103ED000786898471EE07B681B681B6803F4807352
:103EE000002B0FD17B681B681A687B681B6822F067
:103EF00010021A607B68012283F835207B6800225B
:103F000083F834207B68DB6B002B03D07B68DB6B92
:103F1000786898477B685B6D002B32D07B685B6D5F
:103F200003F00103002B22D07B68052283F83520A3
:103F30007B681B681A687B681B6822F001021A60A4
:103F4000BB680133BB607A699A4207D37B681B6800
:103F50001B6803F00103002BF2D100E000BF7B6877
:103F6000012283F835207B68002283F834207B68A7
:103F7000DB6C002B05D07B68DB6C7868984700E031
:103F800000BF1837BD4680BD80B485B000AF7860F3
:103F90007B681B68DBB2103B144AA2FB03231B099E
:103FA000FB60134AFB6813441B781A467B68DA658A
:103FB000FB68032B09D97B681B6823F47F7323F00C
:103FC00003031A1D7B689A6507E07B681B6823F46E
:103FD0007F7323F003037A6893657B689B6D1846B3
:103FE0001437BD465DF8047B704700BFABAAAAAA90
:103FF000E4AC000880B485B000AF78600023FB73A8
:104000007B689B6ABB607B689B69002B1FD1BB6888
:10401000032B56D801A252F823F000BF2D40000810
:104020003F4000082D400008C34000087B68DB6A61
:1040300003F08073002B46D00123FB7343E07B68C1
:10404000DB6AB3F1C07F40D10123FB733DE07B68A5
:104050009B69B3F5005F21D1BB68032B37D801A260
:1040600052F823F0754000087B40000875400008B6
:104070008D4000080123FB7330E07B68DB6A03F0AE
:104080008073002B25D00123FB7322E07B68DB6A61
:10409000B3F1C07F1FD10123FB731CE0BB68022B6F
:1040A00003D9BB68032B03D018E00123FB7315E091
:1040B0007B68DB6A03F08073002B0ED00123FB7357
:1040C0000BE000BF0AE000BF08E000BF06E000BF51
:1040D00004E000BF02E000BF00E000BFFB7B184629
:1040E0001437BD465DF8047B704700BF80B489B0CB
:1040F00000AF7860396000237B6100233B610023BF
:10410000BB610023FB616BE10122FB6902FA03F34F
:104110007B613B681B687A6913403B613A697B6944
:104120009A4240F05A813B685B6803F00303012B1D
:1041300005D03B685B6803F00303022B30D17B683A
:104140009B68BB61FB695B00032202FA03F3DB435C
:10415000BA691340BB613B68DA68FB695B0002FA2D
:1041600003F3BA691343BB617B68BA699A607B68E1
:104170005B68BB610122FB6902FA03F3DB43BA69A6
:104180001340BB613B685B681B0903F00102FB69DC
:1041900002FA03F3BA691343BB617B68BA695A60D8
:1041A0003B685B6803F00303032B17D07B68DB6875
:1041B000BB61FB695B00032202FA03F3DB43BA69CC
:1041C0001340BB613B689A68FB695B0002FA03F32A
:1041D000BA691343BB617B68BA69DA603B685B68A4
:1041E00003F00303022B23D1FB69DA087B68083252
:1041F00053F82230BB61FB6903F007039B000F22D9
:1042000002FA03F3DB43BA691340BB613B681A69E6
:10421000FB6903F007039B0002FA03F3BA69134337
:10422000BB61FB69DA087B680832B96943F8221080
:104230007B681B68BB61FB695B00032202FA03F326
:10424000DB43BA691340BB613B685B6803F0030260
:10425000FB695B0002FA03F3BA691343BB617B6835
:10426000BA691A603B685B6803F44033002B00F0C6
:10427000B4800023FB60604B5B6C5F4A43F4804377
:1042800053645D4B5B6C03F48043FB60FB685B4AEB
:10429000FB699B08023352F82330BB61FB6903F0D2
:1042A00003039B000F2202FA03F3DB43BA691340B6
:1042B000BB617B68524A93422BD07B68514A934240
:1042C00025D07B68504A93421FD07B684F4A934267
:1042D00019D07B684E4A934213D07B684D4A934273
:1042E0000DD07B684C4A934207D07B684B4A93427F
:1042F00001D107230EE008230CE006230AE0052382
:1043000008E0042306E0032304E0022302E0012383
:1043100000E00023FA6902F0030292009340BA69B8
:104320001343BB613549FB699B080233BA6941F805
:1043300023203B4B9B68BB613B69DB43BA6913405D
:10434000BB613B685B6803F48013002B03D0BA6940
:104350003B691343BB61324ABB699360304BDB68F6
:10436000BB613B69DB43BA691340BB613B685B6877
:1043700003F40013002B03D0BA693B691343BB61FC
:10438000274ABB69D360264B5B68BB613B69DB4353
:10439000BA691340BB613B685B6803F40033002BD0
:1043A00003D0BA693B691343BB611D4ABB695360C3
:1043B0001B4B1B68BB613B69DB43BA691340BB61A4
:1043C0003B685B6803F48033002B03D0BA693B6918
:1043D0001343BB61124ABB691360FB690133FB6184
:1043E000FB690F2B7FF690AE00BF00BF2437BD46A0
:1043F0005DF8047B704700BF003802400038014080
:10440000000002400004024000080240000C02408C
:10441000001002400014024000180240001C02403C
:10442000003C014080B483B000AF78600B467B80D5
:1044300013467B707B78002B03D07A887B689A6167
:1044400003E07B881A047B689A6100BF0C37BD4685
:104450005DF8047B704780B485B000AF78600B4690
:104460007B807B685B69FB607A88FB6813401A0479
:10447000FB68D9437B880B401A437B689A6100BF75
:104480001437BD465DF8047B7047000080B586B0E8
:1044900000AF78607B68002B01D1012367E27B6865
:1044A0001B6803F00103002B75D0884B9B6803F059
:1044B0000C03042B0CD0854B9B6803F00C03082BDA
:1044C00012D1824B5B6803F48003B3F5800F0BD1EC
:1044D0007E4B1B6803F40033002B5BD07B685B686A
:1044E000002B57D1012342E27B685B68B3F5803F24
:1044F00006D1764B1B68754A43F4803313601DE088
:104500007B685B68B3F5A02F0CD1704B1B686F4ABA
:1045100043F4802313606D4B1B686C4A43F4803373
:1045200013600BE0694B1B68684A23F48033136007
:10453000664B1B68654A23F4802313607B685B68C5
:10454000002B13D0FEF7D6FB386108E0FEF7D2FB54
:1045500002463B69D31A642B01D9032307E25B4B64
:104560001B6803F40033002BF0D014E0FEF7C2FB0D
:10457000386108E0FEF7BEFB02463B69D31A642BA4
:1045800001D90323F3E1514B1B6803F40033002BE3
:10459000F0D100E000BF7B681B6803F00203002B32
:1045A00063D04A4B9B6803F00C03002B0BD0474BA6
:1045B0009B6803F00C03082B1CD1444B5B6803F48D
:1045C0008003002B16D1414B1B6803F00203002B24
:1045D00005D07B68DB68012B01D00123C7E13B4B91
:1045E0001B6823F0F8027B681B69DB003749134323
:1045F0000B603AE07B68DB68002B20D0344B012253
:104600001A60FEF777FB386108E0FEF773FB02469D
:104610003B69D31A022B01D90323A8E12B4B1B685A
:1046200003F00203002BF0D0284B1B6823F0F802A4
:104630007B681B69DB00254913430B6015E0244BA5
:1046400000221A60FEF756FB386108E0FEF752FBC5
:1046500002463B69D31A022B01D9032387E11B4B86
:104660001B6803F00203002BF0D17B681B6803F08A
:104670000803002B36D07B685B69002B16D0154BE6
:1046800001221A60FEF736FB386108E0FEF732FBC4
:1046900002463B69D31A022B01D9032367E10B4B76
:1046A0005B6F03F00203002BF0D01BE0094B0022EC
:1046B0001A60FEF71FFB38610EE0FEF71BFB024697
:1046C0003B69D31A022B07D9032350E1003802407B
:1046D00000004742800E4742884B5B6F03F00203A5
:1046E000002BEAD17B681B6803F00403002B00F069
:1046F00097800023FB75814B1B6C03F08053002BCC
:104700000FD10023BB607D4B1B6C7C4A43F0805370
:1047100013647A4B1B6C03F08053BB60BB680123AE
:10472000FB75774B1B6803F48073002B18D1744B17
:104730001B68734A43F480731360FEF7DBFA386139
:1047400008E0FEF7D7FA02463B69D31A022B01D9DB
:1047500003230CE16A4B1B6803F48073002BF0D039
:104760007B689B68012B06D1644B1B6F634A43F047
:10477000010313671CE07B689B68052B0CD15F4B22
:104780001B6F5E4A43F0040313675C4B1B6F5B4A6D
:1047900043F0010313670BE0584B1B6F574A23F09C
:1047A00001031367554B1B6F544A23F0040313672F
:1047B0007B689B68002B15D0FEF79CFA38610AE0F5
:1047C000FEF798FA02463B69D31A41F288329342C7
:1047D00001D90323CBE0494B1B6F03F00203002BED
:1047E000EED014E0FEF786FA38610AE0FEF782FAAE
:1047F00002463B69D31A41F28832934201D903231E
:10480000B5E03E4B1B6F03F00203002BEED1FB7DA6
:10481000012B05D1394B1B6C384A23F080531364AC
:104820007B689B69002B00F0A180344B9B6803F0F0
:104830000C03082B5CD07B689B69022B41D1314B68
:1048400000221A60FEF756FA386108E0FEF752FAC5
:1048500002463B69D31A022B01D9032387E0274B79
:104860001B6803F00073002BF0D17B68DA697B686A
:104870001B6A1A437B685B6A9B011A437B689B6ACD
:104880005B08013B1B041A437B68DB6A1B061B4960
:1048900013434B601B4B01221A60FEF72BFA386161
:1048A00008E0FEF727FA02463B69D31A022B01D92A
:1048B00003235CE0114B1B6803F00073002BF0D066
:1048C00054E0104B00221A60FEF714FA386108E039
:1048D000FEF710FA02463B69D31A022B01D90323D3
:1048E00045E0064B1B6803F00073002BF0D13DE060
:1048F0007B689B69012B07D1012338E00038024017
:1049000000700040600047421B4B5B68FB607B68A7
:104910009B69012B28D0FB6803F480027B68DB696C
:104920009A4221D1FB6803F03F027B681B6A9A42DE
:104930001AD1FA6847F6C07313407A68526A920136
:10494000934211D1FB6803F440327B689B6A5B0899
:10495000013B1B049A4207D1FB6803F070627B683D
:10496000DB6A1B069A4201D0012300E000231846AF
:104970001837BD4680BD00BF0038024080B584B006
:1049800000AF786039607B68002B01D10123CCE057
:10499000684B1B6803F007033A689A420CD9654BD1
:1049A0003A68D2B21A70634B1B6803F007033A6887
:1049B0009A4201D00123B8E07B681B6803F0020330
:1049C000002B20D07B681B6803F00403002B05D06C
:1049D000594B9B68584A43F4E05393607B681B68CB
:1049E00003F00803002B05D0534B9B68524A43F455
:1049F00060439360504B9B6823F0F0027B689B6898
:104A00004D4913438B607B681B6803F00103002B47
:104A100044D07B685B68012B07D1474B1B6803F4CC
:104A20000033002B19D101237FE07B685B68022BE8
:104A300003D07B685B68032B07D13F4B1B6803F0F7
:104A40000073002B09D101236FE03B4B1B6803F07F
:104A50000203002B01D1012367E0374B9B6823F051
:104A600003027B685B68344913438B60FEF742F9AD
:104A7000F8600AE0FEF73EF90246FB68D31A41F2FD
:104A80008832934201D903234FE02B4B9B6803F0FC
:104A90000C027B685B689B009A42EBD1254B1B683C
:104AA00003F007033A689A420CD2224B3A68D2B21A
:104AB0001A70204B1B6803F007033A689A4201D032
:104AC000012332E07B681B6803F00403002B08D04D
:104AD000194B9B6823F4E0527B68DB68164913434B
:104AE0008B607B681B6803F00803002B09D0124B16
:104AF0009B6823F460427B681B69DB000E4913430B
:104B00008B6000F021F802460B4B9B681B0903F0F9
:104B10000F030A49CB5C22FA03F3094A1360094BDD
:104B20001B681846FEF7A2F8002318461037BD464A
:104B300080BD00BF003C024000380240CCAC000801
:104B400000000020040000202DE9B04F94B000AF19
:104B500000237B640023FB6400233B640023BB64CD
:104B6000794B9B6803F00C03082B0DD0082B00F247
:104B7000E180002B02D0042B03D0DBE0734BBB643D
:104B8000DBE0734BBB64D8E06F4B5B6803F03F0323
:104B90007B646D4B5B6803F48003002B63D06A4B2E
:104BA0005B689B090022BB63FA63BB6BC3F308031A
:104BB0003B6300237B63D7E90C4522462B464FF02D
:104BC00000004FF00001590141EAD2615001024654
:104BD0000B462146511A3961294663EB01037B617B
:104BE0004FF000024FF00003D7E904AB59468B01A8
:104BF000514643EA916351468A015146B2EB01089E
:104C0000594663EB01094FF000024FF000034FEAF1
:104C1000C90343EA58734FEAC802904699462346AF
:104C200018EB0303BB602B4649EB0303FB604FF01B
:104C300000024FF00003D7E9024529464B02214606
:104C400043EAD15321464A02104619467B6C0022A2
:104C5000BB62FA62D7E90A23FBF712FB02460B4656
:104C60001346FB6458E0384B5B689B0900221846EA
:104C70001146C0F308033B6200237B62D7E9088931
:104C800042464B464FF000004FF00001590141EA07
:104C9000D261500102460B464146B2EB010A494639
:104CA00063EB010B4FF000024FF000034FEA8B1350
:104CB00043EA9A634FEA8A12B2EB0A0463EB0B05EC
:104CC0004FF000024FF00003EB0043EA5473E200A0
:104CD00014461D464346E3183B604B4645EB030331
:104CE0007B604FF000024FF00003D7E900452946F2
:104CF0008B02214643EA915321468A021046194607
:104D00007B6C0022BB61FA61D7E90623FBF7B8FA96
:104D100002460B461346FB640B4B5B681B0C03F00F
:104D2000030301335B003B64FA6C3B6CB2FBF3F3AF
:104D3000BB6402E0054BBB6400BFBB6C1846503738
:104D4000BD46BDE8B08F00BF003802400024F4002B
:104D500000127A0080B400AF034B1B681846BD46B2
:104D60005DF8047B704700BF0000002080B500AFF5
:104D7000FFF7F0FF0246054B9B689B0A03F0070311
:104D80000349CB5C22FA03F3184680BD0038024089
:104D9000DCAC000880B500AFFFF7DCFF0246054B36
:104DA0009B685B0B03F007030349CB5C22FA03F318
:104DB000184680BD00380240DCAC000880B582B0E7
:104DC00000AF78607B68002B01D1012341E07B6854
:104DD00093F83D30DBB2002B06D17B68002283F8CC
:104DE0003C207868FCF7FEFE7B68022283F83D20B9
:104DF0007B681A687B6804331946104600F024FD6E
:104E00007B68012283F846207B68012283F83E20DC
:104E10007B68012283F83F207B68012283F84020D1
:104E20007B68012283F841207B68012283F84220BD
:104E30007B68012283F843207B68012283F84420A9
:104E40007B68012283F845207B68012283F83D209E
:104E5000002318460837BD4680BD80B582B000AF3C
:104E600078607B68002B01D1012341E07B6893F8D7
:104E70003D30DBB2002B06D17B68002283F83C205A
:104E8000786800F039F87B68022283F83D207B685F
:104E90001A687B6804331946104600F0D5FC7B681D
:104EA000012283F846207B68012283F83E207B683C
:104EB000012283F83F207B68012283F840207B6831
:104EC000012283F841207B68012283F842207B681D
:104ED000012283F843207B68012283F844207B6809
:104EE000012283F845207B68012283F83D200023BE
:104EF00018460837BD4680BD80B483B000AF7860E7
:104F000000BF0C37BD465DF8047B704780B584B0A8
:104F100000AF786039603B68002B09D17B6893F85B
:104F20003E30DBB2012B14BF01230023DBB222E0B1
:104F30003B68042B09D17B6893F83F30DBB2012B2F
:104F400014BF01230023DBB215E03B68082B09D115
:104F50007B6893F84030DBB2012B14BF01230023A0
:104F6000DBB208E07B6893F84130DBB2012B14BF61
:104F700001230023DBB2002B01D001237CE03B683E
:104F8000002B04D17B68022283F83E2013E03B68AB
:104F9000042B04D17B68022283F83F200BE03B689E
:104FA000082B04D17B68022283F8402003E07B6851
:104FB000022283F841207B681B6801223968184669
:104FC00000F032FF7B681B682D4A934204D07B6857
:104FD0001B682C4A934201D1012300E00023002BDF
:104FE00007D07B681B685A6C7B681B6842F40042E0
:104FF0005A647B681B68224A934222D07B681B68F4
:10500000B3F1804F1DD07B681B681F4A934218D0B4
:105010007B681B681D4A934213D07B681B681C4A3F
:1050200093420ED07B681B68164A934209D07B6876
:105030001B68184A934204D07B681B68164A934247
:1050400011D17B681B689B6803F00703FB60FB685A
:10505000062B10D07B681B681A687B681B6842F0BF
:1050600001021A6007E07B681B681A687B681B688E
:1050700042F001021A60002318461037BD4680BD79
:10508000000001400004014000040040000800400E
:10509000000C0040004001400018004080B586B080
:1050A00000AF786039607B68002B01D1012397E065
:1050B0007B6893F83D30DBB2002B06D17B68002281
:1050C00083F83C207868FCF787FC7B68022283F831
:1050D0003D207B681B689B687A68126823F48043D4
:1050E00023F0070393607B681A687B6804331946D2
:1050F000104600F0A9FB7B681B689B687B617B689E
:105100001B689B693B617B681B681B6AFB603B6893
:105110001B687A6913437B613B6923F4407323F076
:1051200003033B613B689A683B689B691B0213431E
:105130003A6913433B613B6923F4406323F00C035A
:105140003B613B6923F4704323F0F0033B613B6810
:10515000DA683B68DB691B0213433A6913433B611E
:105160003B681B691A013B681B6A1B0313433A69BE
:1051700013433B61FB6823F02203FB60FB6823F0D1
:105180008803FB603B685A683B685B691B011343FB
:10519000FA681343FB607B681B687A699A607B68D6
:1051A0001B683A699A617B681B68FA681A627B68B7
:1051B000012283F846207B68012283F83E207B6829
:1051C000012283F83F207B68012283F842207B681C
:1051D000012283F843207B68012283F83D200023CD
:1051E00018461837BD4680BD80B584B000AF7860E2
:1051F00039607B6893F83E30FB737B6893F83F30EF
:10520000BB737B6893F842307B737B6893F84330C1
:105210003B733B68002B10D1FB7B012B02D17B7BC6
:10522000012B01D0012369E07B68022283F83E2034
:105230007B68022283F8422031E03B68042B10D1C6
:10524000BB7B012B02D13B7B012B01D0012355E01D
:105250007B68022283F83F207B68022283F8432088
:105260001DE0FB7B012B08D1BB7B012B05D17B7B98
:10527000012B02D13B7B012B01D001233EE07B6857
:10528000022283F83E207B68022283F83F207B685D
:10529000022283F842207B68022283F843203B6885
:1052A000002B03D03B68042B08D00FE07B681B6801
:1052B00001220021184600F0B7FD16E07B681B684C
:1052C00001220421184600F0AFFD0EE07B681B6848
:1052D00001220021184600F0A7FD7B681B6801220F
:1052E0000421184600F0A0FD00BF7B681B681A6807
:1052F0007B681B6842F001021A60002318461037D1
:10530000BD4680BD80B584B000AF78607B681B6807
:10531000DB68FB607B681B681B69BB60BB6803F0D4
:105320000203002B20D0FB6803F00203002B1BD0EC
:105330007B681B686FF002021A617B6801221A7792
:105340007B681B689B6903F00303002B03D078681C
:10535000FBF7EEFF05E0786800F057FA786800F098
:105360005EFA7B6800221A77BB6803F00403002B07
:1053700020D0FB6803F00403002B1BD07B681B6864
:105380006FF004021A617B6802221A777B681B683F
:105390009B6903F44073002B03D07868FBF7C8FFC8
:1053A00005E0786800F031FA786800F038FA7B6838
:1053B00000221A77BB6803F00803002B20D0FB689B
:1053C00003F00803002B1BD07B681B686FF00802FA
:1053D0001A617B6804221A777B681B68DB6903F01B
:1053E0000303002B03D07868FBF7A2FF05E0786881
:1053F00000F00BFA786800F012FA7B6800221A7746
:10540000BB6803F01003002B20D0FB6803F01003EF
:10541000002B1BD07B681B686FF010021A617B6841
:1054200008221A777B681B68DB6903F44073002B42
:1054300003D07868FBF77CFF05E0786800F0E5F9B9
:10544000786800F0ECF97B6800221A77BB6803F0FB
:105450000103002B0CD0FB6803F00103002B07D0E5
:105460007B681B686FF001021A61786800F0C3F96D
:10547000BB6803F08003002B0CD0FB6803F08003B3
:10548000002B07D07B681B686FF080021A61786878
:1054900000F0C8FDBB6803F04003002B0CD0FB6894
:1054A00003F04003002B07D07B681B686FF04002BD
:1054B0001A61786800F0BDF9BB6803F02003002B87
:1054C0000CD0FB6803F02003002B07D07B681B681F
:1054D0006FF020021A61786800F09AFD00BF103763
:1054E000BD4680BD80B586B000AFF860B9607A6017
:1054F0000023FB75FB6893F83C30012B01D102239C
:10550000AEE0FB68012283F83C207B680C2B00F2A4
:105510009F8001A252F823F04D5500085156000813
:1055200051560008515600088D5500085156000884
:105530005156000851560008CF5500085156000832
:1055400051560008515600080F560008FB681B68AA
:10555000B968184600F01EFAFB681B689A69FB6878
:105560001B6842F008029A61FB681B689A69FB6835
:105570001B6822F004029A61FB681B689969BB688A
:105580001A69FB681B680A439A6164E0FB681B6840
:10559000B968184600F06EFAFB681B689A69FB68E8
:1055A0001B6842F400629A61FB681B689A69FB6899
:1055B0001B6822F480629A61FB681B689969BB686A
:1055C0001B691A02FB681B680A439A6143E0FB6887
:1055D0001B68B968184600F0C3FAFB681B68DA69F3
:1055E000FB681B6842F00802DA61FB681B68DA6935
:1055F000FB681B6822F00402DA61FB681B68D9694A
:10560000BB681A69FB681B680A43DA6123E0FB6820
:105610001B68B968184600F017FBFB681B68DA695D
:10562000FB681B6842F40062DA61FB681B68DA6998
:10563000FB681B6822F48062DA61FB681B68D96929
:10564000BB681B691A02FB681B680A43DA6102E047
:105650000123FB7500BFFB68002283F83C20FB7D23
:1056600018461837BD4680BD80B584B000AF78605D
:1056700039600023FB737B6893F83C30012B01D128
:105680000223B4E07B68012283F83C207B6802227D
:1056900083F83D207B681B689B68BB60BB6823F078
:1056A0007703BB60BB6823F47F43BB607B681B68E8
:1056B000BA689A603B681B68B3F5005F3ED0B3F5EB
:1056C000005F00F28780B3F5805F00F08680B3F55D
:1056D000805F7FD8702B1AD0702B7BD8602B50D076
:1056E000602B77D8502B3CD0502B73D8402B58D000
:1056F000402B6FD8302B64D0302B6BD8202B60D050
:10570000202B67D8002B5CD0102B5AD062E07B682E
:1057100018683B6899683B685A683B68DB6800F02A
:1057200063FB7B681B689B68BB60BB6843F07703C7
:10573000BB607B681B68BA689A604FE07B6818683A
:105740003B6899683B685A683B68DB6800F04CFB33
:105750007B681B689A687B681B6842F480429A6089
:105760003CE07B6818683B6859683B68DB681A4610
:1057700000F0C0FA7B681B685021184600F019FB46
:105780002CE07B6818683B6859683B68DB681A4600
:1057900000F0DFFA7B681B686021184600F009FB07
:1057A0001CE07B6818683B6859683B68DB681A46F0
:1057B00000F0A0FA7B681B684021184600F0F9FA57
:1057C0000CE07B681A683B681B681946104600F0BD
:1057D000F0FA03E00123FB7300E000BF7B680122C5
:1057E00083F83D207B68002283F83C20FB7B184631
:1057F0001037BD4680BD80B483B000AF786000BF75
:105800000C37BD465DF8047B704780B483B000AFB1
:10581000786000BF0C37BD465DF8047B704780B4EC
:1058200083B000AF786000BF0C37BD465DF8047BE5
:10583000704780B483B000AF786000BF0C37BD46BE
:105840005DF8047B7047000080B485B000AF7860DD
:1058500039607B681B68FB607B68434A934213D0C6
:105860007B68B3F1804F0FD07B68404A93420BD0E6
:105870007B683F4A934207D07B683E4A934203D0FD
:105880007B683D4A934208D1FB6823F07003FB60BC
:105890003B685B68FA681343FB607B68324A93425B
:1058A0002BD07B68B3F1804F27D07B682F4A93427F
:1058B00023D07B682E4A93421FD07B682D4A9342A7
:1058C0001BD07B682C4A934217D07B682B4A9342AB
:1058D00013D07B682A4A93420FD07B68294A9342AF
:1058E0000BD07B68284A934207D07B68274A9342B3
:1058F00003D07B68264A934208D1FB6823F44073A7
:10590000FB603B68DB68FA681343FB60FB6823F0CD
:1059100080023B685B691343FB603B689A687B6865
:10592000DA623B681A687B689A627B680E4A934227
:1059300003D07B68104A934203D13B681A697B68A5
:105940001A637B681B6843F004027B681A607B68FB
:1059500001225A617B68FA681A6000BF1437BD469D
:105960005DF8047B704700BF000001400004004068
:1059700000080040000C00400004014000400140CD
:10598000004401400048014000180040001C004055
:105990000020004080B487B000AF786039607B6839
:1059A0001B6A7B617B681B6A23F001027B681A62B9
:1059B0007B685B683B617B689B69FB60FB6823F0ED
:1059C0007003FB60FB6823F00303FB603B681B680C
:1059D000FA681343FB607B6923F002037B613B6839
:1059E0009B687A6913437B617B68204A934203D0AA
:1059F0007B681F4A93420CD17B6923F008037B61CB
:105A00003B68DB687A6913437B617B6923F004039D
:105A10007B617B68154A934203D07B68144A9342AA
:105A200011D13B6923F480733B613B6923F400731C
:105A30003B613B685B693A6913433B613B689B6927
:105A40003A6913433B617B683A695A607B68FA683C
:105A50009A613B685A687B685A637B687A691A6204
:105A600000BF1C37BD465DF8047B70470000014055
:105A70000004014080B487B000AF786039607B6873
:105A80001B6A7B617B681B6A23F010027B681A62C9
:105A90007B685B683B617B689B69FB60FB6823F408
:105AA000E043FB60FB6823F44073FB603B681B68CA
:105AB0001B02FA681343FB607B6923F020037B61C0
:105AC0003B689B681B017A6913437B617B68224AB0
:105AD000934203D07B68214A93420DD17B6923F026
