:020000040800F2
:1000000000000220851A0008210F0008290F0008AF
:10001000310F0008390F0008410F000800000000F0
:10002000000000000000000000000000C190000877
:10003000490F00080000000011930008570F000846
:10004000D51A0008D51A0008D51A0008D51A0008D4
:10005000D51A0008D51A0008D51A0008D51A0008C4
:10006000D51A0008D51A0008D51A0008D51A0008B4
:10007000D51A0008D51A0008D51A0008D51A0008A4
:10008000710F0008850F0008D51A0008D51A00085E
:10009000D51A0008D51A0008D51A0008D51A000884
:1000A000D51A0008990F0008D51A0008D51A0008BB
:1000B000AD0F0008C10F0008D50F0008D51A0008C1
:1000C000D51A0008D51A0008D51A0008D51A000854
:1000D000D51A0008D51A0008E90F0008FD0F00081E
:1000E000D51A0008D51A0008D51A0008D51A000834
:1000F000D51A0008D51A0008D51A0008D51A000824
:10010000D51A0008D51A0008D51A0008D51A000813
:10011000D51A0008D51A0008D51A0008D51A000803
:10012000D51A0008D51A0008D51A0008D51A0008F3
:10013000D51A0008D51A0008D51A0008D51A0008E3
:10014000D51A0008D51A0008D51A0008D51A0008D3
:10015000D51A0008D51A0008D51A0008D51A0008C3
:10016000D51A0008D51A0008D51A0008D51A0008B3
:10017000D51A0008D51A0008D51A0008000000009A
:08018000D51A0008D51A000889
:1001900010B5054C237833B9044B13B10448AFF3C1
:1001A00000800123237010BD6000002000000000CB
:1001B000C8A1000808B5034B1BB103490348AFF3BE
:1001C000008008BD0000000064000020C8A10008F5
:1001D000034613F8012B002AFBD1181A0138704787
:1001E00001F0FF01102A2BDB10F0070F08D010F8E8
:1001F000013B013A8B422DD010F0070F42B3F6D1EC
:10020000F0B441EA012141EA014122F007047FF004
:1002100000070023F0E80256083C85EA010586EA5B
:10022000010685FA47F5A3FA87F586FA47F6A5FA97
:1002300087F68EB9EED1F0BC01F0FF0102F00702A3
:1002400032B110F8013B013A83EA010313B1F8D14E
:100250000020704701387047002D06BF354603382F
:10026000073815F0010F07D1013015F4807F02BF68
:10027000013015F4C03F0130F0BC0138704700BFB9
:1002800053B94AB9002908BF00281CBF4FF0FF31FD
:100290004FF0FF3000F088B9ADF1080C6DE904CEE5
:1002A00000F006F8DDF804E0DDE9022304B0704751
:1002B0002DE9F047089D0F4604468C46002B48D197
:1002C0008A42164661D9B2FA82F34BB1C3F12002D9
:1002D00001FA03FC20FA02F29E4042EA0C0C9C4018
:1002E0004FEA164EB7B2BCFBFEF1220C0EFB11CC4E
:1002F00042EA0C4201FB07F0904209D9B21801F121
:10030000FF3C80F0EE80904240F2EB8002393244B4
:10031000121AA4B2B2FBFEF00EFB102244EA024411
:1003200000FB07F7A74209D9341900F1FF3280F02A
:10033000DA80A74240F2D7803444023840EA0140D4
:10034000E41B00211DB1DC400023C5E90043BDE8EA
:10035000F0878B4206D90DB1C5E90001002108469E
:10036000BDE8F087B3FA83F1002948D1BB4202D33C
:10037000824200F20781841A67EB0302012094464F
:10038000002DE4D0C5E9004CE1E7002A00F092809E
:10039000B2FA82F3002B40F0A8808A1A4FEA164E78
:1003A0001FFA86FC0121200CB2FBFEF70EFB172280
:1003B00040EA02420CFB07F0904207D9B21807F15D
:1003C000FF3802D2904200F2E2804746121AA4B2ED
:1003D000B2FBFEF00EFB102244EA02440CFB00FCD0
:1003E000A44507D9341900F1FF3202D2A44500F226
:1003F000CB801046A4EB0C0440EA0740A2E7C1F111
:1004000020068B4022FA06FC4CEA030C07FA01F4A2
:1004100020FA06F3F7404FEA1C49234300FA01F89B
:100420001FFA8CFEB7FBF9F01C0C09FB107744EAAD
:10043000074400FB0EF7A74202FA01F20AD91CEBAF
:10044000040400F1FF3A80F09B80A74240F29880BC
:1004500002386444E41B9FB2B4FBF9F309FB134474
:1004600047EA044403FB0EFEA64509D91CEB04042D
:1004700003F1FF3780F08280A6457FD9023B6444B8
:1004800043EA0040A4EB0E04A0FB02E7BC42734623
:10049000B94663D360D05DB1B8EB030264EB0904E5
:1004A00004FA06F622FA01F31E43CC40C5E90064C3
:1004B00000214CE76208480842EAC1710B0C43EA8C
:1004C00000438AB242EA0342B3FBF6F1E407B446C2
:1004D0003746B6461F23B0FBF6F0D21B41EA004177
:1004E00061E7614614E7104628E7C3F1200120FACE
:1004F00001F29E4027FA01F19F403A434FEA164E1F
:100500001FFA86FCB1FBFEF70EFB1710110C41EA37
:10051000004107FB0CF8884504FA03F43AD9711836
:1005200007F1FF3001D288451FD8A1EB0801B1FBCC
:10053000FEF808FB0CF70EFB181192B242EA0142DA
:10054000BA422FD2B21808F1FF31C6D2BA42C4D291
:10055000A8F102013244C0E7F0459CD2BEEB020391
:1005600067EB0C070138B94695E7A6EB080841444C
:10057000B81EB1FBFEF808FB0CF7DCE73B467FE753
:10058000504667E70846FBE63444023832E7023F4C
:1005900032441BE7A1EB08013846B1FBFEF808FB2B
:1005A0000CF7C8E7414698E7704700BF80B58CB0AC
:1005B00000AF07F1200300221A605A609A60DA60E7
:1005C0003B4620220021184609F078F92F4B304A8B
:1005D0001A602E4B4FF480325A602C4B00229A60E6
:1005E0002A4B00221A61294B00221A76274B00223F
:1005F00083F82020254B0022DA62244B254A9A6298
:10060000224B0022DA60214B0122DA611F4B0022CB
:1006100083F830201D4B01225A611C4801F0ECFE8A
:100620000346002B01D000F049FC0B233B62012361
:100630007B620023BB6207F120031946134802F0D6
:1006400089F80346002B01D000F038FC0B233B60F7
:1006500001237B6001233B610123BB600023FB611D
:100660000D4BBB6100237B7500233B750023FB60B2
:100670003B461946054802F08BFA0346002B01D091
:1006800000F01CFC00BF3037BD4680BD7C00002060
:10069000002001400100000F01000F0080B58AB06A
:1006A00000AF786007F1140300221A605A609A6064
:1006B000DA601A617B681B68174A934227D10023CE
:1006C0003B61164B5B6C154A43F480735364134BC8
:1006D0005B6C03F480733B613B690023FB600F4B51
:1006E0001B6B0E4A43F0040313630C4B1B6B03F0AC
:1006F0000403FB60FB6802237B610323BB610023CF
:10070000FB6107F114031946054803F065F800BFC3
:100710002837BD4680BD00BF0020014000380240A0
:100720000008024080B582B000AF00237B60104B10
:100730001B6B0F4A43F4001313630D4B1B6B03F445
:1007400000137B607B6800220521102002F091FCE1
:10075000102002F0AAFC00220521112002F089FCE1
:10076000112002F0A2FC00BF0837BD4680BD00BFCB
:100770000038024080B500AF204A0121012006F078
:1007800000FA03461E4A13601E4A0121012006F0AA
:10079000F8F903461C4A13601C4A0821052006F09C
:1007A00079FA03461A4A13601A4A0821032006F010
:1007B00071FA0346184A1360184A0021184806F0D7
:1007C00033F90346174A1360174A0021174806F009
:1007D0002BF90346164A1360164A0021164806F004
:1007E00023F90346154A1360154A0021154806F0FF
:1007F0001BF90346144A136000BF80BD7CA30008A8
:10080000DC0000208CA30008E00000204CA30008BE
:10081000D400002064A30008D8000020BCA2000877
:100820004D080008C4000020E0A200085D08000890
:10083000C800002004A3000821090008CC00002003
:1008400028A3000845090008D000002080B582B028
:1008500000AF7860012006F079F9FBE780B582B03F
:1008600000AF786001F0F0F94FF4FA71002001F068
:100870002DFB4FF4FA71012001F028FB4FF4FA71BF
:10088000022001F023FB4FF4FA71032001F01EFB5C
:100890001F4B1B78DBB2002B05D0012001F014FCAC
:1008A0001B4B00221A701B4B1B78DBB2002B05D0B0
:1008B000022001F009FC174B00221A70164B1B781E
:1008C000DBB2002B05D0032001F0FEFB124B00220F
:1008D0001A70124B1B78DBB2002B05D0042001F0FC
:1008E000F3FB0E4B00221A706421012001F02EFC54
:1008F0006421022001F02AFC6421032001F026FC7F
:100900006421042001F022FC642006F01FF9BFE7F7
:10091000B6010020B7010020B8010020B901002075
:1009200080B582B000AF78604FF40051044803F006
:1009300008F94FF47A7006F009F900BFF4E700BF38
:100940000008024090B5B1B002AF78604FF00003EC
:100950007B614FF000033B614FF00003FB604FF001
:100960000003BB60614BC7F8B4300023C7F8B03058
:100970004FF0FF3314225E495E4804F023FF4FF02E
:10098000FF3314225C495D4804F01CFF01225C49DE
:10099000584805F039F801225A49584805F034F80A
:1009A000594801F06DFD594B1B78DBB2002B19D073
:1009B0006423642252494F4804F08FFF03461A46CD
:1009C000534B1A60524B1B68002B08D0504B1B68CE
:1009D0009AB24FF0FF334A49464804F0F3FE4B4BBE
:1009E00000221A704B4B1B78DBB2002B19D064230A
:1009F00064224449414804F070FF03461A46464BBE
:100A00001A60454B1B68002B08D0434B1B689AB2F9
:100A10004FF0FF333B49394804F0D4FE3D4B0022F0
:100A20001A7007F1080307F10C0207F1100107F132
:100A3000140097ED2D0A01F037FC384B7B61384BE1
:100A40003B61384BFB60384BBB60384BB3F97830B7
:100A50001946364BB3F984301C46344BB3F9903009
:100A60001A46324BB3F99C3007F14C0001930092C7
:100A700023460A462E4908F0FFFE07F14C031846AC
:100A8000FFF7A6FB03469AB207F14C014FF0FF3384
:100A90001A4804F097FE1C4801F0F2FC64211A4841
:100AA00001F0C0FD0346002B1AD1174801F045FEA6
:100AB000C7F8B00007F11803D7F8B0201D49184651
:100AC00008F0DAFE07F118031846FFF781FB03462A
:100AD0009AB207F118014FF0FF33084804F072FE94
:100AE0004FF47A7006F032F85DE700BF0000504125
:100AF0004CA200083003002064A200087803002004
:100B0000E4000020480100207C000020B401002007
:100B1000AC010020B5010020B0010020CDCC8C3FFD
:100B2000CDCC0C4033335340CDCC8C4080040020DE
:100B30007CA2000898A2000880B58CB000AF07F135
:100B40001C0300221A605A609A60DA601A6100235E
:100B5000BB615B4B1B6B5A4A43F004031363584B56
:100B60001B6B03F00403BB61BB6900237B61544B27
:100B70001B6B534A43F080031363514B1B6B03F011
:100B800080037B617B6900233B614D4B1B6B4C4AAF
:100B900043F0010313634A4B1B6B03F001033B61FA
:100BA0003B690023FB60464B1B6B454A43F0100337
:100BB0001363434B1B6B03F01003FB60FB680023C4
:100BC000BB603F4B1B6B3E4A43F0020313633C4B3D
:100BD0001B6B03F00203BB60BB6800237B60384BD8
:100BE0001B6B374A43F008031363354B1B6B03F051
:100BF00008037B607B6800233B60314B1B6B304AF2
:100C000043F0400313632E4B1B6B03F040033B6028
:100C10003B6800224FF410512A4802F079FF00226D
:100C200048F66001284802F073FF00224FF48071FB
:100C3000264802F06DFF00220C21254802F068FFD3
:100C40004FF41053FB6101233B6200237B620023BE
:100C5000BB6207F11C0319461A4802F0BDFD48F6B5
:100C60006003FB6101233B6200237B620023BB62C4
:100C700007F11C031946144802F0AEFD4FF48073CF
:100C8000FB6101233B6200237B620023BB6207F10F
:100C90001C0319460D4802F09FFD0C23FB61012344
:100CA0003B6200237B620023BB6207F11C031946F1
:100CB000074802F091FD00BF3037BD4680BD00BF40
:100CC00000380240000802400018024000000240C4
:100CD000000C024080B500AF01F01CFB00F01CF8D6
:100CE000FFF72AFFFFF71EFD00F064FD00F08CFD0A
:100CF00000F0D6F900F02CFA00F07EFA00F0D0FAFD
:100D000000F022FBFFF752FC05F044FEFFF732FD36
:100D100005F064FE00BFFDE780B594B000AF07F1B9
:100D2000200330220021184608F0C8FD07F10C030B
:100D300000221A605A609A60DA601A610023BB6070
:100D4000284B1B6C274A43F080531364254B1B6CC4
:100D500003F08053BB60BB6800237B60224B1B68A1
:100D6000214A43F4804313601F4B1B6803F4804304
:100D70007B607B6801233B624FF480337B620223FC
:100D8000BB634FF48003FB6304233B64A8237B64B1
:100D90000223BB640423FB6407F12003184602F01E
:100DA000EBFE0346002B01D000F088F80F23FB6018
:100DB00002233B6100237B614FF4A053BB614FF4DE
:100DC0008053FB6107F10C030521184603F04CF931
:100DD0000346002B01D000F071F800BF5037BD462C
:100DE00080BD00BF003802400070004080B582B076
:100DF00000AF78607B680E4A934208D10D4B012208
:100E00001A7001220C490A4804F0FEFD0BE07B68D1
:100E10000A4A934207D10A4B01221A70012209495A
:100E2000064804F0F1FD00BF0837BD4680BD00BF95
:100E300030030020B4010020BC0100207803002012
:100E4000B5010020C001002080B483B000AF7860FD
:100E50007B68124A934203D1114B01221A7016E0AB
:100E60007B68104A934203D10F4B01221A700EE0A7
:100E70007B680E4A934203D10D4B01221A7006E0A3
:100E80007B680C4A934202D10B4B01221A7000BFBF
:100E90000C37BD465DF8047B704700BFC8010020D9
:100EA000B601002010020020B701002058020020E7
:100EB000B8010020A0020020B901002080B400AFDA
:100EC00072B600BF00BFFDE780B582B000AF00235F
:100ED0007B60124B5B6C114A43F4804353640F4BAD
:100EE0005B6C03F480437B607B6800233B600B4BAF
:100EF0001B6C0A4A43F080531364084B1B6C03F0CD
:100F000080533B603B6800220F216FF0010002F02C
:100F1000B0F800BF0837BD4680BD00BF00380240B2
:100F200080B400AF00BFFDE780B400AF00BFFDE7B5
:100F300080B400AF00BFFDE780B400AF00BFFDE7A5
:100F400080B400AF00BFFDE780B400AF00BFBD4676
:100F50005DF8047B704780B500AF01F02DFA07F013
:100F600011FC0346012B01D008F006FA00BF80BD3A
:100F700080B500AF024802F0F3F900BF80BD00BFAA
:100F8000C003002080B500AF024802F0E9F900BFBD
:100F900080BD00BF2004002080B500AF024803F0F0
:100FA00027FD00BF80BD00BFC801002080B500AF95
:100FB000024803F01DFD00BF80BD00BF10020020ED
:100FC00080B500AF024803F013FD00BF80BD00BF35
:100FD0005802002080B500AF024803F009FD00BFB1
:100FE00080BD00BFA002002080B500AF024804F021
:100FF00031FD00BF80BD00BF3003002080B500AFD1
:10100000024804F027FD00BF80BD00BF7803002028
:1010100080B586B000AF7860144A154BD31A7B6157
:101020007B693B61134B1B68002B02D1114B124AA9
:101030001A60104B1A687B6813443A699A4207D2C7
:1010400008F044FC03460C221A604FF0FF3309E01D
:10105000084B1B68FB60074B1A687B681344054A02
:101060001360FB6818461837BD4680BD000002209B
:1010700000040000C4010020D84F002080B400AF5D
:10108000064BD3F88830054A43F47003C2F8883021
:1010900000BFBD465DF8047B704700BF00ED00E077
:1010A00080B58CB000AF07F10C0324220021184654
:1010B00008F004FC3B1D00221A605A60224B234AB0
:1010C0001A60214B00225A601F4B00229A601E4B6F
:1010D0004FF6FF72DA601C4B00221A611A4B002295
:1010E0005A61194B00229A610323FB6000233B6184
:1010F00001237B610023BB610023FB6100233B6272
:1011000001237B620023BB620023FB6207F10C0317
:1011100019460D4803F038FB0346002B01D0FFF7BA
:10112000CDFE00237B600023BB603B1D19460648B3
:1011300004F016FA0346002B01D0FFF7BFFE00BFF4
:101140003037BD4680BD00BFC8010020000001400F
:1011500080B58CB000AF07F10C03242200211846A3
:1011600008F0ACFB3B1D00221A605A60214B4FF087
:1011700080421A601F4B00225A601E4B00229A6068
:101180001C4B4FF6FF72DA601A4B00221A61194BA2
:1011900000229A610323FB6000233B6101237B61F2
:1011A0000023BB610023FB6100233B6201237B62C0
:1011B0000023BB620023FB6207F10C0319460D48B4
:1011C00003F0E2FA0346002B01D0FFF777FE00237D
:1011D0007B600023BB603B1D1946064804F0C0F944
:1011E0000346002B01D0FFF769FE00BF3037BD4634
:1011F00080BD00BF1002002080B58CB000AF07F1A9
:101200000C0324220021184608F058FB3B1D002245
:101210001A605A60204B214A1A601F4B00225A6004
:101220001D4B00229A601C4B4FF6FF72DA601A4B7E
:1012300000221A61184B80229A610323FB6000236D
:101240003B6101237B610023BB610023FB61002321
:101250003B6201237B620023BB620023FB6207F138
:101260000C0319460C4803F08FFA0346002B01D0FB
:10127000FFF724FE00237B600023BB603B1D194663
:10128000054804F06DF90346002B01D0FFF716FE68
:1012900000BF3037BD4680BD58020020000400402A
:1012A00080B58CB000AF07F10C0324220021184652
:1012B00008F004FB3B1D00221A605A60204B214AB3
:1012C0001A601F4B00225A601D4B00229A601C4B73
:1012D0004FF6FF72DA601A4B00221A61184B002297
:1012E0009A610323FB6000233B6101237B610023A0
:1012F000BB610023FB6100233B6201237B6200236F
:10130000BB620023FB6207F10C0319460C4803F093
:101310003BFA0346002B01D0FFF7D0FD00237B6092
:101320000023BB603B1D1946054804F019F903462C
:10133000002B01D0FFF7C2FD00BF3037BD4680BD96
:10134000A00200200008004080B596B000AF07F171
:10135000480300221A605A609A60DA6007F140037D
:1013600000221A605A6007F1240300221A605A60B2
:101370009A60DA601A615A619A613B1D202200214D
:10138000184608F09BFA584B584A1A60564BA72249
:101390005A60554B00229A60534B40F2E732DA60B4
:1013A000514B00221A61504B00225A614E4B0022D1
:1013B0009A614D4803F078F80346002B01D0FFF7FF
:1013C0007DFD4FF48053BB6407F14803194646483E
:1013D00003F0C0FC0346002B01D0FFF76FFD42482D
:1013E00003F0B1F80346002B01D0FFF767FD00239F
:1013F0003B6400237B6407F1400319463A4804F03C
:10140000AFF80346002B01D0FFF758FD60237B6245
:101410000023BB620023FB6200233B6300237B634A
:101420000023BB630023FB6307F12403002219465A
:101430002D4803F0CDFB0346002B01D0FFF73EFD06
:1014400007F1240304221946274803F0C1FB034691
:10145000002B01D0FFF732FD07F1240308221946C3
:10146000214803F0B5FB0346002B01D0FFF726FD12
:1014700007F124030C2219461B4803F0A9FB03467D
:10148000002B01D0FFF71AFD00237B600023BB6017
:101490000023FB6000233B6100237B614FF400537A
:1014A000BB6100233B623B1D19460F4804F0D4F892
:1014B0000346002B01D0FFF701FD00210A4803F08D
:1014C0009BF80421084803F097F80821064803F028
:1014D00093F80C21044803F08FF8034800F030F92A
:1014E00000BF5837BD4680BDE8020020000401401F
:1014F00080B590B000AF786007F12C0300221A602D
:101500005A609A60DA601A617B681B68744A934279
:1015100035D10023BB62734B5B6C724A43F001030D
:101520005364704B5B6C03F00103BB62BB6A002326
:101530007B626C4B1B6B6B4A43F010031363694B6C
:101540001B6B03F010037B627B6A4FF42063FB622A
:1015500002233B6300237B630023BB630123FB6304
:1015600007F12C031946604802F036F900220521E4
:10157000192001F07EFD192001F097FDACE07B6899
:101580001B68B3F1804F34D100233B62554B1B6C79
:10159000544A43F001031364524B1B6C03F00103E4
:1015A0003B623B6A0023FB614E4B1B6B4D4A43F091
:1015B000010313634B4B1B6B03F00103FB61FB69DE
:1015C0000323FB6202233B6300237B630023BB6393
:1015D0000123FB6307F12C031946444802F0FCF891
:1015E000002205211C2001F044FD1C2001F05DFDBE
:1015F00072E07B681B683E4A934234D10023BB6192
:10160000384B1B6C374A43F002031364354B1B6C99
:1016100003F00203BB61BB6900237B61314B1B6B91
:10162000304A43F0010313632E4B1B6B03F001039D
:101630007B617B69C023FB6202233B6300237B63E6
:101640000023BB630223FB6307F12C0319462748E1
:1016500002F0C2F8002205211D2001F00AFD1D2024
:1016600001F023FD38E07B681B68224A934233D1A6
:1016700000233B611B4B1B6C1A4A43F004031364A9
:10168000184B1B6C03F004033B613B690023FB60B8
:10169000144B1B6B134A43F002031363114B1B6B78
:1016A00003F00203FB60FB68C023FB6202233B6381
:1016B00000237B630023BB630223FB6307F12C033E
:1016C00019460D4802F088F8002205211E2001F07D
:1016D000D0FC1E2001F0E9FC00BF4037BD4680BDB4
:1016E00000000140003802400010024000000240AB
:1016F00000040040000800400004024080B485B0AF
:1017000000AF78607B681B680B4A93420DD10023C1
:10171000FB600A4B5B6C094A43F002035364074BBE
:101720005B6C03F00203FB60FB6800BF1437BD462F
:101730005DF8047B704700BF0004014000380240A0
:1017400080B588B000AF786007F10C0300221A6002
:101750005A609A60DA601A617B681B68124A934289
:101760001ED10023BB60114B1B6B104A43F00403D6
:1017700013630E4B1B6B03F00403BB60BB684FF499
:101780007073FB6002233B6100237B610023BB611C
:101790000323FB6107F10C031946054802F01CF80E
:1017A00000BF2037BD4680BD000401400038024024
:1017B0000008024080B500AF114B124A1A60104B6E
:1017C0004FF4E1325A600E4B00229A600C4B00221B
:1017D000DA600B4B00221A61094B0C225A61084B4C
:1017E00000229A61064B0022DA61054803F09AFF55
:1017F0000346002B01D0FFF761FB00BF80BD00BF97
:10180000300300200044004080B500AF114B124A65
:101810001A60104B4FF4E1325A600E4B00229A606E
:101820000C4B0022DA600B4B00221A61094B0C2290
:101830005A61084B00229A61064B0022DA61054882
:1018400003F070FF0346002B01D0FFF737FB00BF0A
:1018500080BD00BF780300200048004080B58CB0F8
:1018600000AF786007F11C0300221A605A609A608A
:10187000DA601A617B681B68794A934240F0928073
:101880000023BB61774B1B6C764A43F4003313642F
:10189000744B1B6C03F40033BB61BB6900237B6199
:1018A000704B1B6B6F4A43F0080313636D4B1B6B4C
:1018B00003F008037B617B696023FB6102233B62C9
:1018C00000237B620323BB620723FB6207F11C0337
:1018D0001946654801F080FF644B654A1A60634B06
:1018E0004FF000625A60614B00229A605F4B002209
:1018F000DA605E4B4FF480621A615C4B00225A61E1
:101900005A4B00229A61594B4FF48072DA61574B5F
:1019100000221A62554B00225A62544801F0E0FB43
:101920000346002B01D0FFF7C9FA7B684F4ADA6300
:101930004E4A7B6893634F4B4F4A1A604D4B4FF0B2
:1019400000625A604B4B40229A604A4B0022DA6098
:10195000484B4FF480621A61464B00225A61454B56
:1019600000229A61434B0022DA61424B00221A6244
:10197000404B00225A623F4801F0B2FB0346002B65
:1019800001D0FFF79BFA7B683A4A9A63394A7B6831
:10199000936300220521262001F06BFB262001F035
:1019A00084FB58E07B681B68344A934253D1002380
:1019B0003B612C4B1B6C2B4A43F480231364294B53
:1019C0001B6C03F480233B613B690023FB60254BC8
:1019D0001B6B244A43F002031363224B1B6B03F07F
:1019E0000203FB60FB680023BB601E4B1B6B1D4AA0
:1019F00043F0080313631B4B1B6B03F00803BB602E
:101A0000BB684FF40063FB6102233B6200237B62EF
:101A10000323BB620723FB6207F11C031946184826
:101A200001F0DAFE4FF48073FB6102233B62002376
:101A30007B620323BB620723FB6207F11C03194689
:101A4000094801F0C9FE00220521272001F011FB01
:101A5000272001F02AFB00BF3037BD4680BD00BF04
:101A60000044004000380240000C0240C003002047
:101A70008860024020040020A0600240004800402E
:101A800000040240DFF834D0FFF7F8FA0C480D49A3
:101A90000D4A002302E0D458C4500433C4188C42C9
:101AA000F9D30A4A0A4C002301E013600432A2422F
:101AB000FBD307F011FFFFF70DF97047000002207C
:101AC000000000206000002000A40008600000204A
:101AD000D44F0020FEE7000080B483B000AF03467F
:101AE0000A46FB711346BB80BB88B3F57A7F02D3ED
:101AF00040F2E733BB80FB79032B00F29B8001A20D
:101B000052F823F0151B00085D1B0008A51B0008F8
:101B1000ED1B00084B4B5B69002B05D1494B1B6942
:101B20001B68BA885A6386E0464B5B69042B05D173
:101B3000444B1B691A68BB8893637CE0414B5B692B
:101B4000082B05D13F4B1B691A68BB88D36372E031
:101B50003C4B1B691A68BB8813646CE0394B1B6BE8
:101B6000002B05D1374BDB6A1B68BA885A6362E0E9
:101B7000344B1B6B042B05D1324BDB6A1A68BB88D4
:101B8000936358E02F4B1B6B082B05D12D4BDB6A61
:101B90001A68BB88D3634EE02A4BDB6A1A68BB889D
:101BA000136448E0274BDB6C002B05D1254B9B6C65
:101BB0001B68BA885A633EE0224BDB6C042B05D1CC
:101BC000204B9B6C1A68BB88936334E01D4BDB6C25
:101BD000082B05D11B4B9B6C1A68BB88D3632AE08A
:101BE000184B9B6C1A68BB88136424E0154B9B6EE2
:101BF000002B05D1134B5B6E1B68BA885A631AE041
:101C0000104B9B6E042B05D10E4B5B6E1A68BB8884
:101C1000936310E00B4B9B6E082B05D1094B5B6E59
:101C20001A68BB88D36306E0064B5B6E1A68BB88F4
:101C3000136400E000BF00BF0C37BD465DF8047BB5
:101C4000704700BF8004002080B500AF5C4B5D4A48
:101C50001A605B4B4FF400629A80594B594A9A6064
:101C6000574B4FF400429A81554B574A1A61544BD7
:101C700000225A61524B00221A83514B00229A765D
:101C80004F4B524ADA614E4B04221A844C4B4F4A56
:101C90005A624B4B08221A85494B4B4ADA62484B31
:101CA00004221A63464B00229A86454B002283F891
:101CB0003620434B464A9A63414B4FF480629A87E1
:101CC0003F4B444A1A643E4B4FF48072A3F84420C1
:101CD0003B4B3D4A9A643A4B0822DA64384B002267
:101CE000A3F85020364B002283F85220344B354A5B
:101CF0005A65334B2022A3F85820314B314ADA651C
:101D00002F4B4022A3F860202D4B2F4A5A662C4BB4
:101D10000C229A662A4B0022A3F86C20284B002242
:101D200083F86E20264B2C4A1A67254B00225A67EF
:101D3000234B0022A3F878203C21274802F0CAFD5B
:101D40001F4B264ADA671E4B0022C3F880201C4B2B
:101D50000022A3F884203C21204802F0BBFD184B50
:101D60001F4AC3F88820164B0022C3F88C20144B5E
:101D70000022A3F890203C21194802F0ABFD104B43
:101D8000184AC3F894200E4B0022C3F898200C4B3D
:101D90000022A3F89C203C21124802F09BFD084B36
:101DA0000022A3F8A020064B0022A3F8A220044B97
:101DB0000022A3F8A42000F043F900BF80BD00BFBB
:101DC0008004002000180240E8020020000C0240BD
:101DD0000008024000000240C8010020100200205C
:101DE00058020020A002002080B584B000AF034656
:101DF0000A46FB711346BB710023FB60FB79032B82
:101E000056D801A252F823F0191E00081F1E000820
:101E1000251E00082B1E0008284BFB6008E0284BFD
:101E2000FB6005E0274BFB6002E0274BFB6000BF37
:101E3000FB68BA799A76BB79022B28D0022B39DC61
:101E4000002B02D0012B11D034E0FB681868FB682E
:101E50009B880022194601F05BFEFB689868FB68CE
:101E60009B890022194601F053FE24E0FB681868A4
:101E7000FB689B880122194601F04AFEFB689868BE
:101E8000FB689B890022194601F042FE13E0FB68C3
:101E90001868FB689B880022194601F039FEFB6830
:101EA0009868FB689B890122194601F031FE02E027
:101EB00000BF00E000BF1037BD4680BD8004002099
:101EC0009C040020B8040020D404002080B584B015
:101ED00000AF03460A46FB711346BB800023FB603C
:101EE000FB79032B5BD801A252F823F0FD1E0008FA
:101EF000031F0008091F00080F1F00082A4BFB6082
:101F000008E02A4BFB6005E0294BFB6002E0294B0F
:101F1000FB6000BFB7F90430184600F073F80346C1
:101F2000BB80FB68BA881A83B7F90430002B12DD36
:101F3000FB7901211846FFF757FFB7F9043040F24B
:101F4000E73202FB03F31C4A82FB03129211DB17F8
:101F5000D31A7B811CE0B7F90430002B11DAFB792E
:101F600002211846FFF740FFB7F90430134A02FB7D
:101F700003F3114A82FB03129211DB17D31A7B8100
:101F800006E0FB7900211846FFF72EFF00237B8136
:101F90007A89FB7911461846FFF79EFD00E000BFE5
:101FA0001037BD4680BD00BF800400209C04002087
:101FB000B8040020D4040020D34D621019FCFFFFA8
:101FC00080B582B000AF0346FB71FB79FF2B10D1C7
:101FD00000210020FFF77AFF00210120FFF776FFA4
:101FE00000210220FFF772FF00210320FFF76EFFA0
:101FF00004E0FB7900211846FFF768FF00BF0837AF
:10200000BD4680BD80B483B000AF0346FB80B7F906
:102010000630B3F57A7F02DD4FF47A7308E0B7F942
:10202000063013F57A7F01DA044B01E0B7F9063088
:1020300018460C37BD465DF8047B704718FCFFFF5F
:1020400080B500AF084B0022A3F8A020064B002269
:10205000A3F8A220044B0022A3F8A420FF20FFF73E
:10206000AFFF00BF80BD00BF8004002080B483B0FC
:1020700000AF0346FB71FB79013B032B1AD801A289
:1020800052F823F0952000089D200008A5200008A4
:10209000AD2000080B4BB3F978300CE0094BB3F9D5
:1020A000843008E0074BB3F9903004E0054BB3F9F6
:1020B0009C3000E0002318460C37BD465DF8047BD9
:1020C000704700BF8004002080B483B000AF034697
:1020D000FB71FB79013B032B2FD801A252F823F0AF
:1020E000F120000801210008132100082721000821
:1020F000154B1B6F1B685B6A1A46134B5A671CE033
:10210000114BDB6F1B685B6A1A460F4BC3F88020CC
:1021100013E00D4BD3F888301B685B6A1A460A4BF4
:10212000C3F88C2009E0084BD3F894301B685B6A35
:102130001A46054BC3F8982000BF00BF0C37BD46B8
:102140005DF8047B704700BF8004002080B485B038
:1021500000AF03460A46FB711346BB80FB79013B87
:10216000032B75D801A252F823F000BF7D2100088F
:10217000B1210008E52100081B220008374B1B6F26
:102180001B685B6AFB60364B1B68FA68D31ABB603E
:10219000BB684FF47A7203FB02F2BB8892FBF3F345
:1021A0001AB22E4BA3F878202D4AFB6813604FE03B
:1021B0002A4BDB6F1B685B6AFB60294B5B68FA6824
:1021C000D31ABB60BB684FF47A7203FB02F2BB8880
:1021D00092FBF3F31AB2214BA3F88420204AFB6848
:1021E000536035E01D4BD3F888301B685B6AFB6099
:1021F0001B4B9B68FA68D31ABB60BB684FF47A72BA
:1022000003FB02F2BB8892FBF3F31AB2134BA3F861
:102210009020134AFB6893601AE0104BD3F8943077
:102220001B685B6AFB600E4BDB68FA68D31ABB6005
:10223000BB684FF47A7203FB02F2BB8892FBF3F3A4
:102240001AB2064BA3F89C20054AFB68D36000BF76
:1022500000BF1437BD465DF8047B70478004002042
:102260002805002080B584B000AF034687ED000A42
:10227000FB71FB791846FFF7F9FE0346FB81B7F9BE
:102280000E3007EE903AF8EEE76A97ED007AC6EE68
:10229000877A9FED047A67EE877AB0EE670A103787
:1022A000BD4680BD0000704280B586B000AF786149
:1022B0003961FA60BB6087ED010A97ED010A0120E0
:1022C000FFF7D0FFF0EE407A7B69C3ED007A97ED1F
:1022D000010A0220FFF7C6FFF0EE407A3B69C3ED2A
:1022E000007A97ED010A0320FFF7BCFFF0EE407A79
:1022F000FB68C3ED007A97ED010A0420FFF7B2FFF7
:10230000F0EE407ABB68C3ED007A00BF1837BD46D7
:1023100080BD000080B500AF0E4B1B680D4A43F432
:10232000007313600B4B1B680A4A43F4806313600D
:10233000084B1B68074A43F480731360032000F0C6
:102340008DFE0F2000F008F8FEF7BEFD00231846B2
:1023500080BD00BF003C024080B582B000AF786015
:10236000124B1A68124B1B7819464FF47A73B3FB61
:10237000F1F3B2FBF3F3184600F0A5FE0346002B81
:1023800001D001230EE07B680F2B0AD80022796868
:102390004FF0FF3000F06DFE064A7B6813600023AB
:1023A00000E0012318460837BD4680BD000000202C
:1023B000080000200400002080B400AF064B1B780A
:1023C0001A46064B1B681344044A136000BFBD46FF
:1023D0005DF8047B704700BF08000020380500202E
:1023E00080B400AF034B1B681846BD465DF8047B04
:1023F000704700BF3805002080B584B000AF78601A
:102400000023FB737B68002B01D1012333E07B6841
:102410001B6C002B09D17868FEF740F97B6800221D
:102420005A647B68002283F83C207B681B6C03F0B5
:102430001003002B18D17B681B6C23F4885323F006
:10244000020343F002027B681A64786800F0A4FA81
:102450007B6800225A647B681B6C23F0030343F003
:1024600001027B681A6401E00123FB737B68002290
:1024700083F83C20FB7B18461037BD4680BD00002A
:1024800080B485B000AF78600023BB607B6893F8B0
:102490003C30012B01D10223B2E07B68012283F89A
:1024A0003C207B681B689B6803F00103012B18D05C
:1024B0007B681B689A687B681B6842F001029A601F
:1024C000524B1B68524AA2FB03239A0C13465B0033
:1024D0001344BB6002E0BB68013BBB60BB68002BE0
:1024E000F9D17B681B689B6803F00103012B7AD14B
:1024F0007B681B6C23F4E06323F0010343F48072D8
:102500007B681A647B681B685B6803F48063002B3C
:1025100007D07B681B6C23F4405343F480527B68E4
:102520001A647B681B6C03F48053B3F5805F06D19B
:102530007B685B6C23F006027B685A6402E07B6870
:1025400000225A647B68002283F83C20314BFB60F8
:102550007B681B686FF022021A60FB685B6803F0FF
:102560001F03002B2AD17B681B682B4A934215D08E
:102570007B681B68294A934205D1264B5B6803F0B0
:102580001F03002B0AD07B681B68254A934236D173
:10259000204B5B6803F01003002B30D17B681B6875
:1025A0009B6803F04053002B29D17B681B689A6815
:1025B0007B681B6842F080429A6020E07B681B6861
:1025C000154A93421BD17B681B689B6803F04053FC
:1025D000002B14D17B681B689A687B681B6842F0EB
:1025E00080429A600BE07B681B6C43F010027B68B2
:1025F0001A647B685B6C43F001027B685A640023B9
:1026000018461437BD465DF8047B70470000002073
:1026100083DE1B43002301400020014000210140D4
:102620000022014080B584B000AF7860396000239B
:10263000FB607B681B689B6803F48063B3F5806F65
:1026400013D17B681B689B6803F48073B3F5807FAC
:102650000BD17B681B6C43F020027B681A647B689B
:10266000002283F83C20012363E0FFF7B9FEF86005
:1026700021E03B68B3F1FF3F1DD03B68002B07D042
:10268000FFF7AEFE0246FB68D31A3A689A4212D2AE
:102690007B681B681B6803F00203022B0BD07B686E
:1026A0001B6C43F004027B681A647B68002283F889
:1026B0003C2003233DE07B681B681B6803F002039A
:1026C000022BD6D17B681B686FF012021A607B6800
:1026D0001B6C43F400727B681A647B681B689B6800
:1026E00003F04053002B23D17B681B7E002B1FD1AE
:1026F0007B681B68DB6A03F47003002B06D07B68E1
:102700001B689B6803F48063002B11D17B681B6CF2
:1027100023F480727B681A647B681B6C03F480531B
:10272000002B05D17B681B6C43F001027B681A64A7
:10273000002318461037BD4680BD80B483B000AF7B
:1027400078607B681B68DB6C18460C37BD465DF80B
:10275000047B704780B485B000AF78603960002397
:10276000BB607B6893F83C30012B01D1022305E16B
:102770007B68012283F83C203B681B68092B25D924
:102780007B681B68D9683B681B689BB21A46134676
:102790005B0013441E3B072202FA03F3DA437B6813
:1027A0001B680A40DA607B681B68D9683B689A68D6
:1027B0003B681B689BB2184603465B0003441E3B04
:1027C0009A407B681B680A43DA6022E07B681B68DA
:1027D00019693B681B689BB21A4613465B00134499
:1027E000072202FA03F3DA437B681B680A401A6186
:1027F0007B681B6819693B689A683B681B689BB2D9
:10280000184603465B0003449A407B681B680A43F2
:102810001A613B685B68062B24D87B681B68596B80
:102820003B685A6813469B001344053B1F2202FA7B
:1028300003F3DA437B681B680A405A637B681B68B2
:10284000596B3B681B689BB218463B685A68134635
:102850009B001344053B00FA03F27B681B680A43A4
:102860005A634CE03B685B680C2B24D87B681B6880
:10287000196B3B685A6813469B001344233B1F2285
:1028800002FA03F3DA437B681B680A401A637B6829
:102890001B68196B3B681B689BB218463B685A68FB
:1028A00013469B001344233B00FA03F27B681B682A
:1028B0000A431A6323E07B681B68D96A3B685A683D
:1028C00013469B001344413B1F2202FA03F3DA43F1
:1028D0007B681B680A40DA627B681B68D96A3B68C0
:1028E0001B689BB218463B685A6813469B0013440A
:1028F000413B00FA03F27B681B680A43DA62224B11
:10290000FB607B681B68214A934209D13B681B68C6
:10291000122B05D1FB685B6843F48002FB685A60A8
:102920007B681B68194A934223D13B681B68102BB4
:1029300003D03B681B68112B1BD1FB685B6843F419
:102940000002FB685A603B681B68102B11D1104BCA
:102950001B68104AA2FB03239A0C13469B001344E6
:102960005B00BB6002E0BB68013BBB60BB68002B47
:10297000F9D17B68002283F83C20002318461437E5
:10298000BD465DF8047B70470023014000200140F4
:102990000000002083DE1B4380B485B000AF786068
:1029A000794BFB60FB685B6823F44032FB685A603C
:1029B000FB685A687B685B681A43FB685A607B68EF
:1029C0001B685A687B681B6822F480725A607B68B7
:1029D0001B6859687B681B691A027B681B680A437D
:1029E0005A607B681B685A687B681B6822F04072DB
:1029F0005A607B681B6859687B689A687B681B68AB
:102A00000A435A607B681B689A687B681B6822F4DB
:102A100000629A607B681B6899687B68DA687B68EB
:102A20001B680A439A607B689B6A584A934222D08B
:102A30007B681B689A687B681B6822F070629A60EA
:102A40007B681B6899687B689A6A7B681B680A4385
:102A50009A607B681B689A687B681B6822F040520A
:102A60009A607B681B6899687B68DA6A7B681B6878
:102A70000A439A600FE07B681B689A687B681B6852
:102A800022F070629A607B681B689A687B681B689A
:102A900022F040529A607B681B689A687B681B68CA
:102AA00022F002029A607B681B6899687B681B7E33
:102AB0005A007B681B680A439A607B6893F8203051
:102AC000002B1BD07B681B685A687B681B6842F42C
:102AD00000625A607B681B685A687B681B6822F436
:102AE00060425A607B681B6859687B685B6A013B7F
:102AF0005A037B681B680A435A6007E07B681B68BF
:102B00005A687B681B6822F400625A607B681B6805
:102B1000DA6A7B681B6822F47002DA627B681B68E1
:102B2000D96A7B68DB69013B1A057B681B680A432D
:102B3000DA627B681B689A687B681B6822F4007203
:102B40009A607B681B6899687B6893F830305A02FA
:102B50007B681B680A439A607B681B689A687B687D
:102B60001B6822F480629A607B681B6899687B68A6
:102B70005B699A027B681B680A439A6000BF14373E
:102B8000BD465DF8047B7047002301400100000F43
:102B900080B485B000AF786039607B6893F83C30D2
:102BA000012B01D102237DE17B68012283F83C20C7
:102BB0003B681B68092B25D97B681B68D9683B6873
:102BC0001B689BB21A4613465B0013441E3B072248
:102BD00002FA03F3DA437B681B680A40DA607B6819
:102BE0001B68D9683B689A683B681B689BB21846AB
:102BF00003465B0003441E3B9A407B681B680A4304
:102C0000DA6022E07B681B6819693B681B689BB22D
:102C10001A4613465B001344072202FA03F3DA4311
:102C20007B681B680A401A617B681B6819693B68EE
:102C30009A683B681B689BB2184603465B000344D6
:102C40009A407B681B680A431A617B681B689A6B11
:102C50007B681B6822F440129A637B681B68996B3F
:102C60003B681B69013B1A057B681B680A439A6332
:102C70007B681B68996B3B685B68DAB23B681B69D1
:102C8000DBB2D31ADBB20333DBB21A4613469B0026
:102C900013441F2202FA03F3DA437B681B680A40DD
:102CA0009A637B681B68996B3B681B689BB21846EC
:102CB0003B685B68DAB23B681B69DBB2D31ADBB2F4
:102CC0000333DBB21A4613469B00134400FA03F2A7
:102CD0007B681B680A439A633B689B69744A93420A
:102CE00022D07B681B689A687B681B6822F470227C
:102CF0009A607B681B6899683B689A697B681B6867
:102D00000A439A607B681B689A687B681B6822F498
:102D100040129A607B681B6899683B68DA697B6837
:102D20001B680A439A600FE07B681B689A687B689F
:102D30001B6822F470229A607B681B689A687B6823
:102D40001B6822F440129A603B685B7D002B08D020
:102D50007B681B685A687B681B6842F480625A6013
:102D600007E07B681B685A687B681B6822F48062F6
:102D70005A603B681B7D002B08D07B681B685A6833
:102D80007B681B6842F480525A6007E07B681B68CE
:102D90005A687B681B6822F480525A603B685B6803
:102DA000032B2ED0032B40D8012B02D0022B14D0A2
:102DB0003BE07B681B685B697A68126823F47F6379
:102DC00023F00F0353617B681B6859693B68DA681D
:102DD0007B681B680A435A613BE07B681B689B6900
:102DE0007A68126823F47F6323F00F0393617B6892
:102DF0001B6899693B68DA687B681B680A439A61BB
:102E000027E07B681B68DB697A68126823F47F63BC
:102E100023F00F03D3617B681B68D9693B68DA68CC
:102E20007B681B680A43DA6113E07B681B681B6AD6
:102E30007A68126823F47F6323F00F0313627B68C0
:102E40001B68196A3B68DA687B681B680A431A6268
:102E500000BF184BFB607B681B68174A934209D17F
:102E60003B681B68122B05D1FB685B6843F480024A
:102E7000FB685A607B681B680F4A93420DD13B6820
:102E80001B68102B03D03B681B68112B05D1FB6816
:102E90005B6843F40002FB685A607B68002283F899
:102EA0003C20002318461437BD465DF8047B70476C
:102EB00001000F00002301400020014080B485B0D4
:102EC00000AF78607B6803F00703FB600C4BDB68A6
:102ED000BB60BA684FF6FF031340BB60FB681A0281
:102EE000BB68134343F0BF6343F40033BB60044A41
:102EF000BB68D36000BF1437BD465DF8047B7047E4
:102F000000ED00E080B400AF044BDB681B0A03F067
:102F100007031846BD465DF8047B704700ED00E0EE
:102F200080B483B000AF0346FB7197F90730002BE4
:102F30000BDBFB7903F01F02074997F907305B09A8
:102F4000012000FA02F241F8232000BF0C37BD46F1
:102F50005DF8047B704700BF00E100E080B483B0FF
:102F600000AF03463960FB7197F90730002B0ADB8D
:102F70003B68DAB20C4997F907301201D2B20B4420
:102F800083F800230AE03B68DAB20849FB7903F0D2
:102F90000F03043B1201D2B20B441A7600BF0C3768
:102FA000BD465DF8047B704700E100E000ED00E005
:102FB00080B489B000AFF860B9607A60FB6803F054
:102FC0000703FB61FB69C3F10703042B28BF04233C
:102FD000BB61FB690433062B02D9FB69033B00E0AC
:102FE00000237B614FF0FF32BB6902FA03F3DA433F
:102FF000BB681A407B699A404FF0FF317B6901FA48
:1030000003F3D9437B680B40134318462437BD466E
:103010005DF8047B7047000080B582B000AF786037
:103020007B68013BB3F1807F01D301230FE00A4AA3
:103030007B68013B53600F214FF0FF30FFF78EFF9D
:10304000054B00229A60044B07221A6000231846A1
:103050000837BD4680BD00BF10E000E080B582B0FB
:1030600000AF78607868FFF729FF00BF0837BD46DA
:1030700080BD80B586B000AF0346B9607A60FB734F
:1030800000237B61FFF73EFF78617A68B968786951
:10309000FFF78EFF024697F90F3011461846FFF7EB
:1030A0005DFF00BF1837BD4680BD80B582B000AF60
:1030B0000346FB7197F907301846FFF731FF00BF51
:1030C0000837BD4680BD80B582B000AF78607868B3
:1030D000FFF7A2FF034618460837BD4680BD000033
:1030E00080B586B000AF786000237B61FFF778F988
:1030F00038617B68002B01D1012399E07B680222B3
:1031000083F835207B68002283F834207B681B68B5
:103110001A687B681B6822F001021A600FE0FFF753
:103120005FF902463B69D31A052B08D97B68202238
:103130005A657B68032283F83520032378E07B6897
:103140001B681B6803F00103002BE8D17B681B6838
:103150001B687B617A69384B13407B617B685A68D6
:103160007B689B681A437B68DB681A437B681B6932
:103170001A437B685B691A437B689B691A437B68C7
:10318000DB691A437B681B6A13437A6913437B61CB
:103190007B685B6A042B07D17B68DA6A7B681B6BF0
:1031A00013437A6913437B617B681B687A691A60F1
:1031B0007B681B685B697B617B6923F007037B612C
:1031C0007B685B6A7A6913437B617B685B6A042B6B
:1031D00017D17B689B6A7A6913437B617B68DB6AE2
:1031E000002B0ED0786800F07BFA0346002B08D045
:1031F0007B6840225A657B68012283F835200123D1
:1032000016E07B681B687A695A61786800F032FAC8
:103210000346FB607B68DB6D3F229A40FB689A6047
:103220007B6800225A657B68012283F835200023E1
:1032300018461837BD4680BD3F8010F080B584B079
:1032400000AF78607B689B6DFB60FFF7C9F8B860E2
:103250007B6893F83530DBB2022B08D07B68802284
:103260005A657B68002283F83420012352E07B6892
:103270001B681A687B681B6822F016021A607B685C
:103280001B685A697B681B6822F080025A617B6860
:103290001B6C002B03D17B689B6C002B07D07B68D9
:1032A0001B681A687B681B6822F008021A607B683A
:1032B0001B681A687B681B6822F001021A6013E021
:1032C000FFF78EF80246BB68D31A052B0CD97B6832
:1032D00020225A657B68032283F835207B68002210
:1032E00083F83420032315E07B681B681B6803F018
:1032F0000103002BE4D17B68DB6D3F229A40FB6821
:103300009A607B68012283F835207B68002283F86D
:103310003420002318461037BD4680BD80B483B0EA
:1033200000AF78607B6893F83530DBB2022B04D0B5
:103330007B6880225A6501230CE07B68052283F8B4
:1033400035207B681B681A687B681B6822F00102C5
:103350001A60002318460C37BD465DF8047B7047A1
:1033600080B586B000AF78600023BB608E4B1B68D1
:103370008E4AA2FB03239B0A7B617B689B6D3B61AA
:103380003B691B68FB607B68DB6D08229A40FB6829
:103390001340002B1AD07B681B681B6803F00403E2
:1033A000002B13D07B681B681A687B681B6822F0AF
:1033B00004021A607B68DB6D08229A403B699A60C0
:1033C0007B685B6D43F001027B685A657B68DB6D4F
:1033D00001229A40FB681340002B12D07B681B68C7
:1033E0005B6903F08003002B0BD07B68DB6D01224F
:1033F0009A403B699A607B685B6D43F002027B6890
:103400005A657B68DB6D04229A40FB681340002BF1
:1034100012D07B681B681B6803F00203002B0BD0E3
:103420007B68DB6D04229A403B699A607B685B6D28
:1034300043F004027B685A657B68DB6D10229A407A
:10344000FB681340002B43D07B681B681B6803F0AC
:103450000803002B3CD07B68DB6D10229A403B694F
:103460009A607B681B681B6803F48023002B18D0CC
:103470007B681B681B6803F40023002B08D17B6862
:103480001B6C002B24D07B681B6C786898471FE06E
:103490007B689B6C002B1BD07B689B6C7868984783
:1034A00016E07B681B681B6803F48073002B07D150
:1034B0007B681B681A687B681B6822F008021A6028
:1034C0007B681B6C002B03D07B681B6C786898476B
:1034D0007B68DB6D20229A40FB681340002B00F0D4
:1034E0008F807B681B681B6803F01003002B00F0C3
:1034F00087807B68DB6D20229A403B699A607B68FD
:1035000093F83530DBB2052B36D17B681B681A681F
:103510007B681B6822F016021A607B681B685A6978
:103520007B681B6822F080025A617B681B6C002B51
:1035300003D17B689B6C002B07D07B681B681A68E3
:103540007B681B6822F008021A607B68DB6D3F22F3
:103550009A403B699A607B68012283F835207B683A
:10356000002283F834207B681B6D002B7ED07B68A3
:103570001B6D7868984779E07B681B681B6803F4CB
:103580008023002B1DD07B681B681B6803F400237D
:10359000002B0DD17B685B6C002B31D07B685B6CA2
:1035A000786898472CE000BF00000020B5814E1BD2
:1035B0007B68DB6B002B23D07B68DB6B78689847DC
:1035C0001EE07B681B681B6803F48073002B0FD11F
:1035D0007B681B681A687B681B6822F010021A60FF
:1035E0007B68012283F835207B68002283F8342031
:1035F0007B68DB6B002B03D07B68DB6B78689847BC
:103600007B685B6D002B32D07B685B6D03F0010340
:10361000002B22D07B68052283F835207B681B684D
:103620001A687B681B6822F001021A60BB680133CC
:10363000BB607A699A4207D37B681B681B6803F0FA
:103640000103002BF2D100E000BF7B68012283F868
:1036500035207B68002283F834207B68DB6C002BEC
:1036600005D07B68DB6C7868984700E000BF1837AE
:10367000BD4680BD80B485B000AF78607B681B68B4
:10368000DBB2103B144AA2FB03231B09FB60134A65
:10369000FB6813441B781A467B68DA65FB68032BCA
:1036A00009D97B681B6823F47F7323F003031A1D79
:1036B0007B689A6507E07B681B6823F47F7323F0BF
:1036C00003037A6893657B689B6D18461437BD4683
:1036D0005DF8047B704700BFABAAAAAAB4A3000898
:1036E00080B485B000AF78600023FB737B689B6A71
:1036F000BB607B689B69002B1FD1BB68032B56D82E
:1037000001A252F823F000BF193700082B37000838
:1037100019370008AF3700087B68DB6A03F0807355
:10372000002B46D00123FB7343E07B68DB6AB3F1D7
:10373000C07F40D10123FB733DE07B689B69B3F5FB
:10374000005F21D1BB68032B37D801A252F823F0C8
:1037500061370008673700086137000879370008CB
:103760000123FB7330E07B68DB6A03F08073002B7E
:1037700025D00123FB7322E07B68DB6AB3F1C07FB5
:103780001FD10123FB731CE0BB68022B03D9BB686C
:10379000032B03D018E00123FB7315E07B68DB6A81
:1037A00003F08073002B0ED00123FB730BE000BFEE
:1037B0000AE000BF08E000BF06E000BF04E000BF71
:1037C00002E000BF00E000BFFB7B18461437BD4697
:1037D0005DF8047B704700BF80B489B000AF7860AB
:1037E000396000237B6100233B610023BB61002320
:1037F000FB616BE10122FB6902FA03F37B613B6829
:103800001B687A6913403B613A697B699A4240F0D0
:103810005A813B685B6803F00303012B05D03B68CA
:103820005B6803F00303022B30D17B689B68BB61AC
:10383000FB695B00032202FA03F3DB43BA6913401E
:10384000BB613B68DA68FB695B0002FA03F3BA69A3
:103850001343BB617B68BA699A607B685B68BB6134
:103860000122FB6902FA03F3DB43BA691340BB612F
:103870003B685B681B0903F00102FB6902FA03F372
:10388000BA691343BB617B68BA695A603B685B687D
:1038900003F00303032B17D07B68DB68BB61FB6974
:1038A0005B00032202FA03F3DB43BA691340BB61F6
:1038B0003B689A68FB695B0002FA03F3BA69134339
:1038C000BB617B68BA69DA603B685B6803F003033D
:1038D000022B23D1FB69DA087B68083253F82230C7
:1038E000BB61FB6903F007039B000F2202FA03F39D
:1038F000DB43BA691340BB613B681A69FB6903F09B
:1039000007039B0002FA03F3BA691343BB61FB6927
:10391000DA087B680832B96943F822107B681B68B3
:10392000BB61FB695B00032202FA03F3DB43BA6964
:103930001340BB613B685B6803F00302FB695B00FB
:1039400002FA03F3BA691343BB617B68BA691A6070
:103950003B685B6803F44033002B00F0B480002325
:10396000FB60604B5B6C5F4A43F4804353645D4B88
:103970005B6C03F48043FB60FB685B4AFB699B085C
:10398000023352F82330BB61FB6903F003039B0051
:103990000F2202FA03F3DB43BA691340BB617B6871
:1039A000524A93422BD07B68514A934225D07B6880
:1039B000504A93421FD07B684F4A934219D07B688C
:1039C0004E4A934213D07B684D4A93420DD07B6898
:1039D0004C4A934207D07B684B4A934201D107235C
:1039E0000EE008230CE006230AE0052308E0042388
:1039F00006E0032304E0022302E0012300E00023A9
:103A0000FA6902F0030292009340BA691343BB6162
:103A10003549FB699B080233BA6941F823203B4BC7
:103A20009B68BB613B69DB43BA691340BB613B6880
:103A30005B6803F48013002B03D0BA693B6913431E
:103A4000BB61324ABB699360304BDB68BB613B6949
:103A5000DB43BA691340BB613B685B6803F4001346
:103A6000002B03D0BA693B691343BB61274ABB698A
:103A7000D360264B5B68BB613B69DB43BA6913408B
:103A8000BB613B685B6803F40033002B03D0BA6969
:103A90003B691343BB611D4ABB6953601B4B1B68E9
:103AA000BB613B69DB43BA691340BB613B685B6840
:103AB00003F48033002B03D0BA693B691343BB6125
:103AC000124ABB691360FB690133FB61FB690F2B71
:103AD0007FF690AE00BF00BF2437BD465DF8047B83
:103AE000704700BF0038024000380140000002402B
:103AF0000004024000080240000C02400010024096
:103B00000014024000180240001C0240003C01402A
:103B100080B483B000AF78600B467B8013467B7027
:103B20007B78002B03D07A887B689A6103E07B88DE
:103B30001A047B689A6100BF0C37BD465DF8047BB0
:103B4000704780B485B000AF78600B467B807B689F
:103B50005B69FB607A88FB6813401A04FB68D943F1
:103B60007B880B401A437B689A6100BF1437BD46BF
:103B70005DF8047B7047000080B586B000AF7860C8
:103B80007B68002B01D1012367E27B681B6803F08F
:103B90000103002B75D0884B9B6803F00C03042BAA
:103BA0000CD0854B9B6803F00C03082B12D1824B81
:103BB0005B6803F48003B3F5800F0BD17E4B1B6869
:103BC00003F40033002B5BD07B685B68002B57D17C
:103BD000012342E27B685B68B3F5803F06D1764BF8
:103BE0001B68754A43F4803313601DE07B685B6893
:103BF000B3F5A02F0CD1704B1B686F4A43F48023A0
:103C000013606D4B1B686C4A43F4803313600BE008
:103C1000694B1B68684A23F480331360664B1B684A
:103C2000654A23F4802313607B685B68002B13D004
:103C3000FEF7D6FB386108E0FEF7D2FB02463B698F
:103C4000D31A642B01D9032307E25B4B1B6803F4EF
:103C50000033002BF0D014E0FEF7C2FB386108E01F
:103C6000FEF7BEFB02463B69D31A642B01D903233E
:103C7000F3E1514B1B6803F40033002BF0D100E05B
:103C800000BF7B681B6803F00203002B63D04A4B24
:103C90009B6803F00C03002B0BD0474B9B6803F091
:103CA0000C03082B1CD1444B5B6803F48003002BEE
:103CB00016D1414B1B6803F00203002B05D07B6833
:103CC000DB68012B01D00123C7E13B4B1B6823F0CC
:103CD000F8027B681B69DB00374913430B603AE04D
:103CE0007B68DB68002B20D0344B01221A60FEF782
:103CF00077FB386108E0FEF773FB02463B69D31A95
:103D0000022B01D90323A8E12B4B1B6803F002030C
:103D1000002BF0D0284B1B6823F0F8027B681B694E
:103D2000DB00254913430B6015E0244B00221A6089
:103D3000FEF756FB386108E0FEF752FB02463B698E
:103D4000D31A022B01D9032387E11B4B1B6803F015
:103D50000203002BF0D17B681B6803F00803002BE3
:103D600036D07B685B69002B16D0154B01221A6098
:103D7000FEF736FB386108E0FEF732FB02463B698E
:103D8000D31A022B01D9032367E10B4B5B6F03F0BE
:103D90000203002BF0D01BE0094B00221A60FEF753
:103DA0001FFB38610EE0FEF71BFB02463B69D31A8E
:103DB000022B07D9032350E100380240000047429C
:103DC000800E4742884B5B6F03F00203002BEAD161
:103DD0007B681B6803F00403002B00F0978000232E
:103DE000FB75814B1B6C03F08053002B0FD100231C
:103DF000BB607D4B1B6C7C4A43F0805313647A4B51
:103E00001B6C03F08053BB60BB680123FB75774BD1
:103E10001B6803F48073002B18D1744B1B68734A22
:103E200043F480731360FEF7DBFA386108E0FEF7B5
:103E3000D7FA02463B69D31A022B01D903230CE1BE
:103E40006A4B1B6803F48073002BF0D07B689B687F
:103E5000012B06D1644B1B6F634A43F001031367C8
:103E60001CE07B689B68052B0CD15F4B1B6F5E4A87
:103E700043F0040313675C4B1B6F5B4A43F0010381
:103E800013670BE0584B1B6F574A23F0010313676E
:103E9000554B1B6F544A23F0040313677B689B68E0
:103EA000002B15D0FEF79CFA38610AE0FEF798FA6D
:103EB00002463B69D31A41F28832934201D9032367
:103EC000CBE0494B1B6F03F00203002BEED014E054
:103ED000FEF786FA38610AE0FEF782FA02463B698D
:103EE000D31A41F28832934201D90323B5E03E4B05
:103EF0001B6F03F00203002BEED1FB7D012B05D1DC
:103F0000394B1B6C384A23F0805313647B689B69E0
:103F1000002B00F0A180344B9B6803F00C03082BAE
:103F20005CD07B689B69022B41D1314B00221A6027
:103F3000FEF756FA386108E0FEF752FA02463B698E
:103F4000D31A022B01D9032387E0274B1B6803F008
:103F50000073002BF0D17B68DA697B681B6A1A4317
:103F60007B685B6A9B011A437B689B6A5B08013B29
:103F70001B041A437B68DB6A1B061B4913434B6017
:103F80001B4B01221A60FEF72BFA386108E0FEF79E
:103F900027FA02463B69D31A022B01D903235CE0BE
:103FA000114B1B6803F00073002BF0D054E0104B52
:103FB00000221A60FEF714FA386108E0FEF710FAE2
:103FC00002463B69D31A022B01D9032345E0064B75
:103FD0001B6803F00073002BF0D13DE07B689B6908
:103FE000012B07D1012338E0003802400070004067
:103FF000600047421B4B5B68FB607B689B69012B41
:1040000028D0FB6803F480027B68DB699A4221D1E7
:10401000FB6803F03F027B681B6A9A421AD1FA6878
:1040200047F6C07313407A68526A9201934211D1E5
:10403000FB6803F440327B689B6A5B08013B1B040E
:104040009A4207D1FB6803F070627B68DB6A1B064B
:104050009A4201D0012300E0002318461837BD46DC
:1040600080BD00BF0038024080B584B000AF7860EA
:1040700039607B68002B01D10123CCE0684B1B68C1
:1040800003F007033A689A420CD9654B3A68D2B2FA
:104090001A70634B1B6803F007033A689A4201D019
:1040A0000123B8E07B681B6803F00203002B20D0DB
:1040B0007B681B6803F00403002B05D0594B9B68F9
:1040C000584A43F4E05393607B681B6803F008038D
:1040D000002B05D0534B9B68524A43F460439360D6
:1040E000504B9B6823F0F0027B689B684D4913435B
:1040F0008B607B681B6803F00103002B44D07B6856
:104100005B68012B07D1474B1B6803F40033002B7E
:1041100019D101237FE07B685B68022B03D07B68A9
:104120005B68032B07D13F4B1B6803F00073002B28
:1041300009D101236FE03B4B1B6803F00203002B06
:1041400001D1012367E0374B9B6823F003027B68B2
:104150005B68344913438B60FEF742F9F8600AE06C
:10416000FEF73EF90246FB68D31A41F288329342C9
:1041700001D903234FE02B4B9B6803F00C027B68B3
:104180005B689B009A42EBD1254B1B6803F0070349
:104190003A689A420CD2224B3A68D2B21A70204B3B
:1041A0001B6803F007033A689A4201D0012332E00A
:1041B0007B681B6803F00403002B08D0194B9B6835
:1041C00023F4E0527B68DB68164913438B607B68FD
:1041D0001B6803F00803002B09D0124B9B6823F4E3
:1041E00060427B681B69DB000E4913438B6000F063
:1041F00021F802460B4B9B681B0903F00F030A4989
:10420000CB5C22FA03F3094A1360094B1B6818467A
:10421000FEF7A2F8002318461037BD4680BD00BF48
:10422000003C0240003802409CA30008000000202F
:10423000040000202DE9B04F94B000AF00237B6450
:104240000023FB6400233B640023BB64794B9B6821
:1042500003F00C03082B0DD0082B00F2E180002B9B
:1042600002D0042B03D0DBE0734BBB64DBE0734B69
:10427000BB64D8E06F4B5B6803F03F037B646D4B1E
:104280005B6803F48003002B63D06A4B5B689B0977
:104290000022BB63FA63BB6BC3F308033B630023D9
:1042A0007B63D7E90C4522462B464FF000004FF0C8
:1042B0000001590141EAD261500102460B462146F4
:1042C000511A3961294663EB01037B614FF000020B
:1042D0004FF00003D7E904AB59468B01514643EA3E
:1042E000916351468A015146B2EB0108594663EB8E
:1042F00001094FF000024FF000034FEAC90343EAFF
:1043000058734FEAC80290469946234618EB0303B8
:10431000BB602B4649EB0303FB604FF000024FF0FC
:104320000003D7E9024529464B02214643EAD1530F
:1043300021464A02104619467B6C0022BB62FA6293
:10434000D7E90A23FBF79CFF02460B461346FB64A2
:1043500058E0384B5B689B09002218461146C0F3B1
:1043600008033B6200237B62D7E9088942464B463B
:104370004FF000004FF00001590141EAD2615001B5
:1043800002460B464146B2EB010A494663EB010B7C
:104390004FF000024FF000034FEA8B1343EA9A6399
:1043A0004FEA8A12B2EB0A0463EB0B054FF00002EE
:1043B0004FF00003EB0043EA5473E20014461D463D
:1043C0004346E3183B604B4645EB03037B604FF0ED
:1043D00000024FF00003D7E9004529468B02214631
:1043E00043EA915321468A02104619467B6C00220B
:1043F000BB61FA61D7E90623FBF742FF02460B4691
:104400001346FB640B4B5B681B0C03F00303013387
:104410005B003B64FA6C3B6CB2FBF3F3BB6402E001
:10442000054BBB6400BFBB6C18465037BD46BDE8AA
:10443000B08F00BF003802400024F40000127A0060
:1044400080B400AF034B1B681846BD465DF8047B83
:10445000704700BF0000002080B500AFFFF7F0FFFD
:104460000246054B9B689B0A03F007030349CB5C9C
:1044700022FA03F3184680BD00380240ACA30008BE
:1044800080B500AFFFF7DCFF0246054B9B685B0B76
:1044900003F007030349CB5C22FA03F3184680BDFF
:1044A00000380240ACA3000880B582B000AF78604D
:1044B0007B68002B01D1012341E07B6893F83D30FC
:1044C000DBB2002B06D17B68002283F83C207868A1
:1044D000FDF714F97B68022283F83D207B681A6897
:1044E0007B6804331946104600F024FD7B680122E6
:1044F00083F846207B68012283F83E207B680122F6
:1045000083F83F207B68012283F840207B680122EA
:1045100083F841207B68012283F842207B680122D6
:1045200083F843207B68012283F844207B680122C2
:1045300083F845207B68012283F83D20002318463C
:104540000837BD4680BD80B582B000AF78607B681B
:10455000002B01D1012341E07B6893F83D30DBB2B1
:10456000002B06D17B68002283F83C20786800F09D
:1045700039F87B68022283F83D207B681A687B68E3
:1045800004331946104600F0D5FC7B68012283F8FD
:1045900046207B68012283F83E207B68012283F855
:1045A0003F207B68012283F840207B68012283F84A
:1045B00041207B68012283F842207B68012283F836
:1045C00043207B68012283F844207B68012283F822
:1045D00045207B68012283F83D20002318460837D8
:1045E000BD4680BD80B483B000AF786000BF0C379B
:1045F000BD465DF8047B704780B584B000AF78603D
:1046000039603B68002B09D17B6893F83E30DBB200
:10461000012B14BF01230023DBB222E03B68042BF3
:1046200009D17B6893F83F30DBB2012B14BF012323
:104630000023DBB215E03B68082B09D17B6893F8B7
:104640004030DBB2012B14BF01230023DBB208E0B2
:104650007B6893F84130DBB2012B14BF01230023A8
:10466000DBB2002B01D001237CE03B68002B04D19E
:104670007B68022283F83E2013E03B68042B04D1C0
:104680007B68022283F83F200BE03B68082B04D1B3
:104690007B68022283F8402003E07B68022283F8D3
:1046A00041207B681B6801223968184600F032FF00
:1046B0007B681B682D4A934204D07B681B682C4A98
:1046C000934201D1012300E00023002B07D07B6837
:1046D0001B685A6C7B681B6842F400425A647B6812
:1046E0001B68224A934222D07B681B68B3F1804F3B
:1046F0001DD07B681B681F4A934218D07B681B68DB
:104700001D4A934213D07B681B681C4A93420ED00B
:104710007B681B68164A934209D07B681B68184A5D
:10472000934204D07B681B68164A934211D17B6880
:104730001B689B6803F00703FB60FB68062B10D027
:104740007B681B681A687B681B6842F001021A606C
:1047500007E07B681B681A687B681B6842F00102EF
:104760001A60002318461037BD4680BD0000014086
:10477000000401400004004000080040000C00401C
:10478000004001400018004080B586B000AF78605E
:1047900039607B68002B01D1012397E07B6893F897
:1047A0003D30DBB2002B06D17B68002283F83C2031
:1047B0007868FCF79DFE7B68022283F83D207B68C9
:1047C0001B689B687A68126823F4804323F0070310
:1047D00093607B681A687B6804331946104600F0C2
:1047E000A9FB7B681B689B687B617B681B689B6976
:1047F0003B617B681B681B6AFB603B681B687A69CE
:1048000013437B613B6923F4407323F003033B6153
:104810003B689A683B689B691B0213433A691343E0
:104820003B613B6923F4406323F00C033B613B692C
:1048300023F4704323F0F0033B613B68DA683B6884
:10484000DB691B0213433A6913433B613B681B69F5
:104850001A013B681B6A1B0313433A6913433B610C
:10486000FB6823F02203FB60FB6823F08803FB60F6
:104870003B685A683B685B691B011343FA68134342
:10488000FB607B681B687A699A607B681B683A6981
:104890009A617B681B68FA681A627B68012283F858
:1048A00046207B68012283F83E207B68012283F842
:1048B0003F207B68012283F842207B68012283F835
:1048C00043207B68012283F83D20002318461837D7
:1048D000BD4680BD80B584B000AF786039607B682C
:1048E00093F83E30FB737B6893F83F30BB737B6873
:1048F00093F842307B737B6893F843303B733B689B
:10490000002B10D1FB7B012B02D17B7B012B01D033
:10491000012369E07B68022283F83E207B68022243
:1049200083F8422031E03B68042B10D1BB7B012B84
:1049300002D13B7B012B01D0012355E07B68022291
:1049400083F83F207B68022283F843201DE0FB7B35
:10495000012B08D1BB7B012B05D17B7B012B02D125
:104960003B7B012B01D001233EE07B68022283F8D0
:104970003E207B68022283F83F207B68022283F876
:1049800042207B68022283F843203B68002B03D03F
:104990003B68042B08D00FE07B681B6801220021D4
:1049A000184600F0B7FD16E07B681B680122042161
:1049B000184600F0AFFD0EE07B681B680122002165
:1049C000184600F0A7FD7B681B68012204211846E9
:1049D00000F0A0FD00BF7B681B681A687B681B683D
:1049E00042F001021A60002318461037BD4680BD10
:1049F00080B584B000AF78607B681B68DB68FB60C3
:104A00007B681B681B69BB60BB6803F00203002B5B
:104A100020D0FB6803F00203002B1BD07B681B68CF
:104A20006FF002021A617B6801221A777B681B68AB
:104A30009B6903F00303002B03D07868FCF704FAAA
:104A400005E0786800F057FA786800F05EFA7B6855
:104A500000221A77BB6803F00403002B20D0FB6808
:104A600003F00403002B1BD07B681B686FF004026B
:104A70001A617B6802221A777B681B689B6903F4C2
:104A80004073002B03D07868FCF7DEF905E0786806
:104A900000F031FA786800F038FA7B6800221A7763
:104AA000BB6803F00803002B20D0FB6803F0080369
:104AB000002B1BD07B681B686FF008021A617B68B3
:104AC00004221A777B681B68DB6903F00303002B61
:104AD00003D07868FCF7B8F905E0786800F00BFAC5
:104AE000786800F012FA7B6800221A77BB6803F03E
:104AF0001003002B20D0FB6803F01003002B1BD009
:104B00007B681B686FF010021A617B6808221A77B5
:104B10007B681B68DB6903F44073002B03D0786863
:104B2000FCF792F905E0786800F0E5F9786800F0A4
:104B3000ECF97B6800221A77BB6803F00103002BB5
:104B40000CD0FB6803F00103002B07D07B681B68C7
:104B50006FF001021A61786800F0C3F9BB6803F0D6
:104B60008003002B0CD0FB6803F08003002B07D0E0
:104B70007B681B686FF080021A61786800F0C8FDDE
:104B8000BB6803F04003002B0CD0FB6803F040032C
:104B9000002B07D07B681B686FF040021A617868B1
:104BA00000F0BDF9BB6803F02003002B0CD0FB68BC
:104BB00003F02003002B07D07B681B686FF02002F6
:104BC0001A61786800F09AFD00BF1037BD4680BDBD
:104BD00080B586B000AFF860B9607A600023FB75DD
:104BE000FB6893F83C30012B01D10223AEE0FB6857
:104BF000012283F83C207B680C2B00F29F8001A2ED
:104C000052F823F0394C00083D4D00083D4D000896
:104C10003D4D0008794C00083D4D00083D4D000811
:104C20003D4D0008BB4C00083D4D00083D4D0008BF
:104C30003D4D0008FB4C0008FB681B68B96818462E
:104C400000F01EFAFB681B689A69FB681B6842F05B
:104C500008029A61FB681B689A69FB681B6822F06E
:104C600004029A61FB681B689969BB681A69FB6852
:104C70001B680A439A6164E0FB681B68B9681846C0
:104C800000F06EFAFB681B689A69FB681B6842F4C7
:104C900000629A61FB681B689A69FB681B6822F4D2
:104CA00080629A61FB681B689969BB681B691A027C
:104CB000FB681B680A439A6143E0FB681B68B9689C
:104CC000184600F0C3FAFB681B68DA69FB681B68CA
:104CD00042F00802DA61FB681B68DA69FB681B684E
:104CE00022F00402DA61FB681B68D969BB681A69A3
:104CF000FB681B680A43DA6123E0FB681B68B9683C
:104D0000184600F017FBFB681B68DA69FB681B6834
:104D100042F40062DA61FB681B68DA69FB681B68B1
:104D200022F48062DA61FB681B68D969BB681B6981
:104D30001A02FB681B680A43DA6102E00123FB7573
:104D400000BFFB68002283F83C20FB7D1846183723
:104D5000BD4680BD80B584B000AF78603960002367
:104D6000FB737B6893F83C30012B01D10223B4E044
:104D70007B68012283F83C207B68022283F83D2077
:104D80007B681B689B68BB60BB6823F07703BB60D4
:104D9000BB6823F47F43BB607B681B68BA689A607A
:104DA0003B681B68B3F5005F3ED0B3F5005F00F2CF
:104DB0008780B3F5805F00F08680B3F5805F7FD891
:104DC000702B1AD0702B7BD8602B50D0602B77D8EB
:104DD000502B3CD0502B73D8402B58D0402B6FD841
:104DE000302B64D0302B6BD8202B60D0202B67D891
:104DF000002B5CD0102B5AD062E07B6818683B68AF
:104E000099683B685A683B68DB6800F063FB7B6825
:104E10001B689B68BB60BB6843F07703BB607B6823
:104E20001B68BA689A604FE07B6818683B689968AD
:104E30003B685A683B68DB6800F04CFB7B681B688A
:104E40009A687B681B6842F480429A603CE07B6809
:104E500018683B6859683B68DB681A4600F0C0FA7E
:104E60007B681B685021184600F019FB2CE07B681A
:104E700018683B6859683B68DB681A4600F0DFFA3F
:104E80007B681B686021184600F009FB1CE07B680A
:104E900018683B6859683B68DB681A4600F0A0FA5E
:104EA0007B681B684021184600F0F9FA0CE07B682B
:104EB0001A683B681B681946104600F0F0FA03E0D8
:104EC0000123FB7300E000BF7B68012283F83D20D3
:104ED0007B68002283F83C20FB7B18461037BD46D8
:104EE00080BD80B483B000AF786000BF0C37BD4692
:104EF0005DF8047B704780B483B000AF786000BF7A
:104F00000C37BD465DF8047B704780B483B000AFBA
:104F1000786000BF0C37BD465DF8047B704780B4F5
:104F200083B000AF786000BF0C37BD465DF8047BEE
:104F30007047000080B485B000AF786039607B684E
:104F40001B68FB607B68434A934213D07B68B3F1D4
:104F5000804F0FD07B68404A93420BD07B683F4A1A
:104F6000934207D07B683E4A934203D07B683D4A18
:104F7000934208D1FB6823F07003FB603B685B68D9
:104F8000FA681343FB607B68324A93422BD07B68FC
:104F9000B3F1804F27D07B682F4A934223D07B68A0
:104FA0002E4A93421FD07B682D4A93421BD07B68C8
:104FB0002C4A934217D07B682B4A934213D07B68CC
:104FC0002A4A93420FD07B68294A93420BD07B68D0
:104FD000284A934207D07B68274A934203D07B68D4
:104FE000264A934208D1FB6823F44073FB603B6878
:104FF000DB68FA681343FB60FB6823F080023B68C0
:105000005B691343FB603B689A687B68DA623B68C4
:105010001A687B689A627B680E4A934203D07B6869
:10502000104A934203D13B681A697B681A637B6814
:105030001B6843F004027B681A607B6801225A6196
:105040007B68FA681A6000BF1437BD465DF8047BC0
:10505000704700BF0000014000040040000800400D
:10506000000C0040000401400040014000440140A9
:105070000048014000180040001C00400020004093
:1050800080B487B000AF786039607B681B6A7B6151
:105090007B681B6A23F001027B681A627B685B688D
:1050A0003B617B689B69FB60FB6823F07003FB60DE
:1050B000FB6823F00303FB603B681B68FA6813433B
:1050C000FB607B6923F002037B613B689B687A6924
:1050D00013437B617B68204A934203D07B681F4A5D
:1050E00093420CD17B6923F008037B613B68DB684A
:1050F0007A6913437B617B6923F004037B617B68DE
:10510000154A934203D07B68144A934211D13B69FC
:1051100023F480733B613B6923F400733B613B687C
:105120005B693A6913433B613B689B693A69134386
:105130003B617B683A695A607B68FA689A613B68B0
:105140005A687B685A637B687A691A6200BF1C37A9
:10515000BD465DF8047B704700000140000401403B
:1051600080B487B000AF786039607B681B6A7B6170
:105170007B681B6A23F010027B681A627B685B689D
:105180003B617B689B69FB60FB6823F4E043FB6049
:10519000FB6823F44073FB603B681B681B02FA68E2
:1051A0001343FB607B6923F020037B613B689B68B2
:1051B0001B017A6913437B617B68224A934203D0C7
:1051C0007B68214A93420DD17B6923F080037B6188
:1051D0003B68DB681B017A6913437B617B6923F0C1
:1051E00040037B617B68174A934203D07B68164A71
:1051F000934213D13B6923F480633B613B6923F401
:1052000000633B613B685B699B003A6913433B6108
:105210003B689B699B003A6913433B617B683A6931
:105220005A607B68FA689A613B685A687B689A633F
:105230007B687A691A6200BF1C37BD465DF8047B43
:10524000704700BF000001400004014080B487B0F7
:1052500000AF786039607B681B6A7B617B681B6A82
:1052600023F480727B681A627B685B683B617B68B1
:10527000DB69FB60FB6823F07003FB60FB6823F0D5
:105280000303FB603B681B68FA681343FB607B69A0
:1052900023F400737B613B689B681B027A691343AC
:1052A0007B617B68214A934203D07B68204A93420A
:1052B0000DD17B6923F400637B613B68DB681B02D3
:1052C0007A6913437B617B6923F480637B617B682C
:1052D000164A934203D07B68154A934213D13B6927
:1052E00023F480533B613B6923F400533B613B68EB
:1052F0005B691B013A6913433B613B689B691B0176
:105300003A6913433B617B683A695A607B68FA6883
:10531000DA613B685A687B68DA637B687A691A628B
:1053200000BF1C37BD465DF8047B7047000001409C
:105330000004014080B487B000AF786039607B68BA
:105340001B6A3B617B681B6A23F480527B681A628C
:105350007B685B687B617B68DB69FB60FB6823F4CF
:10536000E043FB60FB6823F44073FB603B681B6811
:105370001B02FA681343FB603B6923F400533B6153
:105380003B689B681B033A6913433B617B68124A85
:10539000934203D07B68114A934209D17B6923F47D
:1053A00080437B613B685B699B017A6913437B6146
:1053B0007B687A695A607B68FA68DA613B685A6888
:1053C0007B681A647B683A691A6200BF1C37BD4665
:1053D0005DF8047B704700BF0000014000040140FD
:1053E00080B487B000AFF860B9607A60FB681B6A70
:1053F0007B61FB681B6A23F00102FB681A62FB6891
:105400009B693B613B6923F0F0033B617B681B01B7
:105410003A6913433B617B6923F00A037B617A6934
:10542000BB6813437B61FB683A699A61FB687A69E0
:105430001A6200BF1C37BD465DF8047B704780B41C
:1054400087B000AFF860B9607A60FB681B6A7B6167
:10545000FB681B6A23F01002FB681A62FB689B69F9
:105460003B613B6923F470433B617B681B033A69F2
:1054700013433B617B6923F0A0037B61BB681B0185
:105480007A6913437B61FB683A699A61FB687A69C0
:105490001A6200BF1C37BD465DF8047B704780B4BC
:1054A00085B000AF786039607B689B68FB60FB6803
:1054B00023F07003FB603A68FB68134343F0070373
:1054C000FB607B68FA689A6000BF1437BD465DF8E0
:1054D000047B704780B487B000AFF860B9607A6031
:1054E0003B60FB689B687B617B6923F47F437B6146
:1054F0003B681A027B681A43BB6813437A691343FB
:105500007B61FB687A699A6000BF1C37BD465DF815
:10551000047B704780B487B000AFF860B9607A60F0
:10552000BB6803F01F03012202FA03F37B61FB68EF
:105530001A6A7B69DB431A40FB681A62FB681A6AC5
:10554000BB6803F01F03796801FA03F31A43FB6891
:105550001A6200BF1C37BD465DF8047B704700002F
:1055600080B485B000AF786039607B6893F83C30D8
:10557000012B01D102235AE07B68012283F83C20F1
:105580007B68022283F83D207B681B685B68FB60B8
:105590007B681B689B68BB60FB6823F07003FB6043
:1055A0003B681B68FA681343FB607B681B68FA68FA
:1055B0005A607B681B68214A934222D07B681B6833
:1055C000B3F1804F1DD07B681B681D4A934218D0F1
:1055D0007B681B681B4A934213D07B681B681A4A7E
:1055E00093420ED07B681B68184A934209D07B68AF
:1055F0001B68174A934204D07B681B68154A934284
:105600000CD1BB6823F08003BB603B685B68BA6861
:105610001343BB607B681B68BA689A607B68012291
:1056200083F83D207B68002283F83C200023184645
:105630001437BD465DF8047B704700BF0000014091
:105640000004004000080040000C0040000401403D
:10565000004001400018004080B485B000AF786081
:1056600039600023FB607B6893F83C30012B01D14B
:1056700002233DE07B68012283F83C20FB6823F095
:10568000FF023B68DB681343FB60FB6823F4407256
:105690003B689B681343FB60FB6823F480623B68B4
:1056A0005B681343FB60FB6823F400623B681B6884
:1056B0001343FB60FB6823F480523B681B69134370
:1056C000FB60FB6823F400523B685B691343FB609B
:1056D000FB6823F480423B68DB691343FB607B6813
:1056E0001B68FA685A647B68002283F83C20002318
:1056F00018461437BD465DF8047B704780B483B00C
:1057000000AF786000BF0C37BD465DF8047B704782
:1057100080B483B000AF786000BF0C37BD465DF841
:10572000047B704780B582B000AF78607B68002B47
:1057300001D1012342E07B6893F84130DBB2002BBA
:1057400006D17B68002283F840207868FCF786F851
:105750007B68242283F841207B681B68DA687B68B9
:105760001B6822F40052DA60786800F06BFE7B68F8
:105770001B681A697B681B6822F490421A617B6877
:105780001B685A697B681B6822F02A025A617B6891
:105790001B68DA687B681B6842F40052DA607B6839
:1057A00000225A647B68202283F841207B682022F3
:1057B00083F842207B6800225A630023184608378A
:1057C000BD4680BD80B58AB002AFF860B9603B606D
:1057D0001346FB8000237B61FB6893F84130DBB20A
:1057E000202B75D1BB68002B02D0FB88002B01D188
:1057F00001236EE0FB6800225A64FB68212283F8D3
:105800004120FCF7EDFD7861FB68FA889A84FB681B
:10581000FA88DA84FB689B68B3F5805F08D1FB687F
:105820001B69002B04D10023FB61BB68BB6103E053
:10583000BB68FB610023BB612EE03B6800937B6982
:1058400000228021F86800F0CFFB0346002B05D032
:10585000FB68202283F8412003233AE0FB69002BF8
:105860000BD1BB691B881A46FB681B68C2F3080290
:105870005A60BB690233BB6107E0FB691A78FB68B9
:105880001B685A60FB690133FB61FB68DB8C9BB2D0
:10589000013B9AB2FB68DA84FB68DB8C9BB2002B7D
:1058A000CBD13B6800937B6900224021F86800F06F
:1058B0009BFB0346002B05D0FB68202283F8412088
:1058C000032306E0FB68202283F84120002300E048
:1058D000022318462037BD4680BD80B58AB002AF8E
:1058E000F860B9603B601346FB8000237B61FB6876
:1058F00093F84230DBB2202B40F08180BB68002B54
:1059000002D0FB88002B01D1012379E0FB68002243
:105910005A64FB68222283F84220FB6800221A6343
:10592000FCF75EFD7861FB68FA889A85FB68FA8867
:10593000DA85FB689B68B3F5805F08D1FB681B695B
:10594000002B04D10023FB61BB68BB6103E0BB6893
:10595000FB610023BB6147E03B6800937B69002249
:105960002021F86800F040FB0346002B05D0FB68BF
:10597000202283F84220032342E0FB69002B0CD154
:10598000FB681B685B689BB2C3F308039AB2BB69F0
:105990001A80BB690233BB611FE0FB689B68B3F5EB
:1059A000805F07D0FB689B68002B0AD1FB681B69EE
:1059B000002B06D1FB681B685B68DAB2FB691A70C2
:1059C00008E0FB681B685B68DBB203F07F03DAB2B8
:1059D000FB691A70FB690133FB61FB68DB8D9BB2CD
:1059E000013B9AB2FB68DA85FB68DB8D9BB2002B2A
:1059F000B2D1FB68202283F84220002300E002237A
:105A000018462037BD4680BD80B584B000AFF86031
:105A1000B9601346FB80FB6893F84230DBB2202B61
:105A200012D1BB68002B02D0FB88002B01D10123CF
:105A30000BE0FB6800221A63FB881A46B968F86815
:105A400000F02BFB034600E0022318461037BD464A
:105A500080BD000080B5BAB000AF78607B681B687D
:105A60001B68C7F8E4307B681B68DB68C7F8E03068
:105A70007B681B685B69C7F8DC300023C7F8D83047
:105A80000023C7F8D430D7F8E43003F00F03C7F889
:105A9000D830D7F8D830002B0FD1D7F8E43003F046
:105AA0002003002B09D0D7F8E03003F02003002BAF
:105AB00003D0786800F007FC73E2D7F8D830002BE9
:105AC00000F0DE80D7F8DC3003F00103002B06D1B4
:105AD000D7F8E03003F49073002B00F0D180D7F8B2
